{
  "_format": "hh-sol-artifact-1",
  "contractName": "MyNFT",
  "sourceName": "contracts/MyNFT.sol",
  "abi": [
    {
      "anonymous": false,
      "inputs": [
        {
          "indexed": true,
          "internalType": "address",
          "name": "owner",
          "type": "address"
        },
        {
          "indexed": true,
          "internalType": "address",
          "name": "approved",
          "type": "address"
        },
        {
          "indexed": true,
          "internalType": "uint256",
          "name": "tokenId",
          "type": "uint256"
        }
      ],
      "name": "Approval",
      "type": "event"
    },
    {
      "anonymous": false,
      "inputs": [
        {
          "indexed": true,
          "internalType": "address",
          "name": "owner",
          "type": "address"
        },
        {
          "indexed": true,
          "internalType": "address",
          "name": "operator",
          "type": "address"
        },
        {
          "indexed": false,
          "internalType": "bool",
          "name": "approved",
          "type": "bool"
        }
      ],
      "name": "ApprovalForAll",
      "type": "event"
    },
    {
      "anonymous": false,
      "inputs": [
        {
          "indexed": false,
          "internalType": "uint8",
          "name": "version",
          "type": "uint8"
        }
      ],
      "name": "Initialized",
      "type": "event"
    },
    {
      "anonymous": false,
      "inputs": [
        {
          "indexed": true,
          "internalType": "address",
          "name": "previousOwner",
          "type": "address"
        },
        {
          "indexed": true,
          "internalType": "address",
          "name": "newOwner",
          "type": "address"
        }
      ],
      "name": "OwnershipTransferred",
      "type": "event"
    },
    {
      "anonymous": false,
      "inputs": [
        {
          "indexed": true,
          "internalType": "address",
          "name": "from",
          "type": "address"
        },
        {
          "indexed": true,
          "internalType": "address",
          "name": "to",
          "type": "address"
        },
        {
          "indexed": true,
          "internalType": "uint256",
          "name": "tokenId",
          "type": "uint256"
        }
      ],
      "name": "Transfer",
      "type": "event"
    },
    {
      "inputs": [
        {
          "internalType": "address",
          "name": "to",
          "type": "address"
        },
        {
          "internalType": "uint256",
          "name": "tokenId",
          "type": "uint256"
        }
      ],
      "name": "approve",
      "outputs": [],
      "stateMutability": "nonpayable",
      "type": "function"
    },
    {
      "inputs": [
        {
          "internalType": "address",
          "name": "owner",
          "type": "address"
        }
      ],
      "name": "balanceOf",
      "outputs": [
        {
          "internalType": "uint256",
          "name": "",
          "type": "uint256"
        }
      ],
      "stateMutability": "view",
      "type": "function"
    },
    {
      "inputs": [
        {
          "internalType": "uint256",
          "name": "tokenId",
          "type": "uint256"
        }
      ],
      "name": "getApproved",
      "outputs": [
        {
          "internalType": "address",
          "name": "",
          "type": "address"
        }
      ],
      "stateMutability": "view",
      "type": "function"
    },
    {
      "inputs": [],
      "name": "initialize",
      "outputs": [],
      "stateMutability": "nonpayable",
      "type": "function"
    },
    {
      "inputs": [
        {
          "internalType": "address",
          "name": "owner",
          "type": "address"
        },
        {
          "internalType": "address",
          "name": "operator",
          "type": "address"
        }
      ],
      "name": "isApprovedForAll",
      "outputs": [
        {
          "internalType": "bool",
          "name": "",
          "type": "bool"
        }
      ],
      "stateMutability": "view",
      "type": "function"
    },
    {
      "inputs": [
        {
          "internalType": "address",
          "name": "recipient",
          "type": "address"
        },
        {
          "internalType": "string",
          "name": "tokenURI",
          "type": "string"
        }
      ],
      "name": "mintNFT",
      "outputs": [
        {
          "internalType": "uint256",
          "name": "",
          "type": "uint256"
        }
      ],
      "stateMutability": "nonpayable",
      "type": "function"
    },
    {
      "inputs": [],
      "name": "name",
      "outputs": [
        {
          "internalType": "string",
          "name": "",
          "type": "string"
        }
      ],
      "stateMutability": "view",
      "type": "function"
    },
    {
      "inputs": [],
      "name": "owner",
      "outputs": [
        {
          "internalType": "address",
          "name": "",
          "type": "address"
        }
      ],
      "stateMutability": "view",
      "type": "function"
    },
    {
      "inputs": [
        {
          "internalType": "uint256",
          "name": "tokenId",
          "type": "uint256"
        }
      ],
      "name": "ownerOf",
      "outputs": [
        {
          "internalType": "address",
          "name": "",
          "type": "address"
        }
      ],
      "stateMutability": "view",
      "type": "function"
    },
    {
      "inputs": [],
      "name": "renounceOwnership",
      "outputs": [],
      "stateMutability": "nonpayable",
      "type": "function"
    },
    {
      "inputs": [
        {
          "internalType": "address",
          "name": "from",
          "type": "address"
        },
        {
          "internalType": "address",
          "name": "to",
          "type": "address"
        },
        {
          "internalType": "uint256",
          "name": "tokenId",
          "type": "uint256"
        }
      ],
      "name": "safeTransferFrom",
      "outputs": [],
      "stateMutability": "nonpayable",
      "type": "function"
    },
    {
      "inputs": [
        {
          "internalType": "address",
          "name": "from",
          "type": "address"
        },
        {
          "internalType": "address",
          "name": "to",
          "type": "address"
        },
        {
          "internalType": "uint256",
          "name": "tokenId",
          "type": "uint256"
        },
        {
          "internalType": "bytes",
          "name": "_data",
          "type": "bytes"
        }
      ],
      "name": "safeTransferFrom",
      "outputs": [],
      "stateMutability": "nonpayable",
      "type": "function"
    },
    {
      "inputs": [
        {
          "internalType": "address",
          "name": "to",
          "type": "address"
        },
        {
          "internalType": "uint256",
          "name": "tokenId",
          "type": "uint256"
        }
      ],
      "name": "sendMyNFT",
      "outputs": [
        {
          "internalType": "bool",
          "name": "",
          "type": "bool"
        }
      ],
      "stateMutability": "nonpayable",
      "type": "function"
    },
    {
      "inputs": [
        {
          "internalType": "address",
          "name": "operator",
          "type": "address"
        },
        {
          "internalType": "bool",
          "name": "approved",
          "type": "bool"
        }
      ],
      "name": "setApprovalForAll",
      "outputs": [],
      "stateMutability": "nonpayable",
      "type": "function"
    },
    {
      "inputs": [
        {
          "internalType": "bytes4",
          "name": "interfaceId",
          "type": "bytes4"
        }
      ],
      "name": "supportsInterface",
      "outputs": [
        {
          "internalType": "bool",
          "name": "",
          "type": "bool"
        }
      ],
      "stateMutability": "view",
      "type": "function"
    },
    {
      "inputs": [],
      "name": "symbol",
      "outputs": [
        {
          "internalType": "string",
          "name": "",
          "type": "string"
        }
      ],
      "stateMutability": "view",
      "type": "function"
    },
    {
      "inputs": [
        {
          "internalType": "uint256",
          "name": "tokenId",
          "type": "uint256"
        }
      ],
      "name": "tokenURI",
      "outputs": [
        {
          "internalType": "string",
          "name": "",
          "type": "string"
        }
      ],
      "stateMutability": "view",
      "type": "function"
    },
    {
      "inputs": [
        {
          "internalType": "address",
          "name": "from",
          "type": "address"
        },
        {
          "internalType": "address",
          "name": "to",
          "type": "address"
        },
        {
          "internalType": "uint256",
          "name": "tokenId",
          "type": "uint256"
        }
      ],
      "name": "transferFrom",
      "outputs": [],
      "stateMutability": "nonpayable",
      "type": "function"
    },
    {
      "inputs": [
        {
          "internalType": "address",
          "name": "newOwner",
          "type": "address"
        }
      ],
      "name": "transferOwnership",
      "outputs": [],
      "stateMutability": "nonpayable",
      "type": "function"
    }
  ],
  "bytecode": "0x608060405234801561001057600080fd5b50613557806100206000396000f3fe608060405234801561001057600080fd5b50600436106101215760003560e01c8063715018a6116100ad578063b88d4fde11610071578063b88d4fde146102f4578063c87b56dd14610310578063e985e9c514610340578063eacabe1414610370578063f2fde38b146103a057610121565b8063715018a6146102885780638129fc1c146102925780638da5cb5b1461029c57806395d89b41146102ba578063a22cb465146102d857610121565b806323b872dd116100f457806323b872dd146101c057806342842e0e146101dc57806350b0b2d3146101f85780636352211e1461022857806370a082311461025857610121565b806301ffc9a71461012657806306fdde0314610156578063081812fc14610174578063095ea7b3146101a4575b600080fd5b610140600480360381019061013b9190612399565b6103bc565b60405161014d919061283a565b60405180910390f35b61015e61049e565b60405161016b9190612870565b60405180910390f35b61018e600480360381019061018991906123eb565b610530565b60405161019b91906127d3565b60405180910390f35b6101be60048036038101906101b9919061235d565b6105b5565b005b6101da60048036038101906101d59190612203565b6106cd565b005b6101f660048036038101906101f19190612203565b61072d565b005b610212600480360381019061020d919061235d565b61074d565b60405161021f919061283a565b60405180910390f35b610242600480360381019061023d91906123eb565b61076e565b60405161024f91906127d3565b60405180910390f35b610272600480360381019061026d919061219e565b610820565b60405161027f9190612b12565b60405180910390f35b6102906108d8565b005b61029a610960565b005b6102a4610a68565b6040516102b191906127d3565b60405180910390f35b6102c2610a92565b6040516102cf9190612870565b60405180910390f35b6102f260048036038101906102ed91906122cd565b610b24565b005b61030e60048036038101906103099190612252565b610b3a565b005b61032a600480360381019061032591906123eb565b610b9c565b6040516103379190612870565b60405180910390f35b61035a600480360381019061035591906121c7565b610cee565b604051610367919061283a565b60405180910390f35b61038a60048036038101906103859190612309565b610d82565b6040516103979190612b12565b60405180910390f35b6103ba60048036038101906103b5919061219e565b610e36565b005b60007f80ac58cd000000000000000000000000000000000000000000000000000000007bffffffffffffffffffffffffffffffffffffffffffffffffffffffff1916827bffffffffffffffffffffffffffffffffffffffffffffffffffffffff1916148061048757507f5b5e139f000000000000000000000000000000000000000000000000000000007bffffffffffffffffffffffffffffffffffffffffffffffffffffffff1916827bffffffffffffffffffffffffffffffffffffffffffffffffffffffff1916145b80610497575061049682610f2e565b5b9050919050565b6060606580546104ad90612d87565b80601f01602080910402602001604051908101604052809291908181526020018280546104d990612d87565b80156105265780601f106104fb57610100808354040283529160200191610526565b820191906000526020600020905b81548152906001019060200180831161050957829003601f168201915b5050505050905090565b600061053b82610f98565b61057a576040517f08c379a000000000000000000000000000000000000000000000000000000000815260040161057190612a52565b60405180910390fd5b6069600083815260200190815260200160002060009054906101000a900473ffffffffffffffffffffffffffffffffffffffff169050919050565b60006105c08261076e565b90508073ffffffffffffffffffffffffffffffffffffffff168373ffffffffffffffffffffffffffffffffffffffff161415610631576040517f08c379a000000000000000000000000000000000000000000000000000000000815260040161062890612ab2565b60405180910390fd5b8073ffffffffffffffffffffffffffffffffffffffff16610650611004565b73ffffffffffffffffffffffffffffffffffffffff16148061067f575061067e81610679611004565b610cee565b5b6106be576040517f08c379a00000000000000000000000000000000000000000000000000000000081526004016106b590612972565b60405180910390fd5b6106c8838361100c565b505050565b6106de6106d8611004565b826110c5565b61071d576040517f08c379a000000000000000000000000000000000000000000000000000000000815260040161071490612ad2565b60405180910390fd5b6107288383836111a3565b505050565b61074883838360405180602001604052806000815250610b3a565b505050565b600061075983836105b5565b61076433848461072d565b6001905092915050565b6000806067600084815260200190815260200160002060009054906101000a900473ffffffffffffffffffffffffffffffffffffffff169050600073ffffffffffffffffffffffffffffffffffffffff168173ffffffffffffffffffffffffffffffffffffffff161415610817576040517f08c379a000000000000000000000000000000000000000000000000000000000815260040161080e906129b2565b60405180910390fd5b80915050919050565b60008073ffffffffffffffffffffffffffffffffffffffff168273ffffffffffffffffffffffffffffffffffffffff161415610891576040517f08c379a000000000000000000000000000000000000000000000000000000000815260040161088890612992565b60405180910390fd5b606860008373ffffffffffffffffffffffffffffffffffffffff1673ffffffffffffffffffffffffffffffffffffffff168152602001908152602001600020549050919050565b6108e0611004565b73ffffffffffffffffffffffffffffffffffffffff166108fe610a68565b73ffffffffffffffffffffffffffffffffffffffff1614610954576040517f08c379a000000000000000000000000000000000000000000000000000000000815260040161094b90612a72565b60405180910390fd5b61095e600061140a565b565b600061096c60016114d0565b90508015610990576001600060016101000a81548160ff0219169083151502179055505b610a046040518060400160405280600581526020017f4d794846540000000000000000000000000000000000000000000000000000008152506040518060400160405280600381526020017f4e465400000000000000000000000000000000000000000000000000000000008152506115c0565b610a0c61161d565b8015610a655760008060016101000a81548160ff0219169083151502179055507f7f26b83ff96e1f2b6a682f133852f6798a09c465da95921460cefb38474024986001604051610a5c9190612855565b60405180910390a15b50565b600060c960009054906101000a900473ffffffffffffffffffffffffffffffffffffffff16905090565b606060668054610aa190612d87565b80601f0160208091040260200160405190810160405280929190818152602001828054610acd90612d87565b8015610b1a5780601f10610aef57610100808354040283529160200191610b1a565b820191906000526020600020905b815481529060010190602001808311610afd57829003601f168201915b5050505050905090565b610b36610b2f611004565b8383611676565b5050565b610b4b610b45611004565b836110c5565b610b8a576040517f08c379a0000000000000000000000000000000000000000000000000000000008152600401610b8190612ad2565b60405180910390fd5b610b96848484846117e3565b50505050565b6060610ba782610f98565b610be6576040517f08c379a0000000000000000000000000000000000000000000000000000000008152600401610bdd90612a32565b60405180910390fd5b6000609760008481526020019081526020016000208054610c0690612d87565b80601f0160208091040260200160405190810160405280929190818152602001828054610c3290612d87565b8015610c7f5780601f10610c5457610100808354040283529160200191610c7f565b820191906000526020600020905b815481529060010190602001808311610c6257829003601f168201915b505050505090506000610c9061183f565b9050600081511415610ca6578192505050610ce9565b600082511115610cdb578082604051602001610cc39291906127af565b60405160208183030381529060405292505050610ce9565b610ce484611856565b925050505b919050565b6000606a60008473ffffffffffffffffffffffffffffffffffffffff1673ffffffffffffffffffffffffffffffffffffffff16815260200190815260200160002060008373ffffffffffffffffffffffffffffffffffffffff1673ffffffffffffffffffffffffffffffffffffffff16815260200190815260200160002060009054906101000a900460ff16905092915050565b6000610d8c611004565b73ffffffffffffffffffffffffffffffffffffffff16610daa610a68565b73ffffffffffffffffffffffffffffffffffffffff1614610e00576040517f08c379a0000000000000000000000000000000000000000000000000000000008152600401610df790612a72565b60405180910390fd5b610e0a60fb6118fd565b6000610e1660fb611913565b9050610e228482611921565b610e2c8184611afb565b8091505092915050565b610e3e611004565b73ffffffffffffffffffffffffffffffffffffffff16610e5c610a68565b73ffffffffffffffffffffffffffffffffffffffff1614610eb2576040517f08c379a0000000000000000000000000000000000000000000000000000000008152600401610ea990612a72565b60405180910390fd5b600073ffffffffffffffffffffffffffffffffffffffff168173ffffffffffffffffffffffffffffffffffffffff161415610f22576040517f08c379a0000000000000000000000000000000000000000000000000000000008152600401610f19906128b2565b60405180910390fd5b610f2b8161140a565b50565b60007f01ffc9a7000000000000000000000000000000000000000000000000000000007bffffffffffffffffffffffffffffffffffffffffffffffffffffffff1916827bffffffffffffffffffffffffffffffffffffffffffffffffffffffff1916149050919050565b60008073ffffffffffffffffffffffffffffffffffffffff166067600084815260200190815260200160002060009054906101000a900473ffffffffffffffffffffffffffffffffffffffff1673ffffffffffffffffffffffffffffffffffffffff1614159050919050565b600033905090565b816069600083815260200190815260200160002060006101000a81548173ffffffffffffffffffffffffffffffffffffffff021916908373ffffffffffffffffffffffffffffffffffffffff160217905550808273ffffffffffffffffffffffffffffffffffffffff1661107f8361076e565b73ffffffffffffffffffffffffffffffffffffffff167f8c5be1e5ebec7d5bd14f71427d1e84f3dd0314c0f7b2291e5b200ac8c7c3b92560405160405180910390a45050565b60006110d082610f98565b61110f576040517f08c379a000000000000000000000000000000000000000000000000000000000815260040161110690612952565b60405180910390fd5b600061111a8361076e565b90508073ffffffffffffffffffffffffffffffffffffffff168473ffffffffffffffffffffffffffffffffffffffff16148061115c575061115b8185610cee565b5b8061119a57508373ffffffffffffffffffffffffffffffffffffffff1661118284610530565b73ffffffffffffffffffffffffffffffffffffffff16145b91505092915050565b8273ffffffffffffffffffffffffffffffffffffffff166111c38261076e565b73ffffffffffffffffffffffffffffffffffffffff1614611219576040517f08c379a0000000000000000000000000000000000000000000000000000000008152600401611210906128d2565b60405180910390fd5b600073ffffffffffffffffffffffffffffffffffffffff168273ffffffffffffffffffffffffffffffffffffffff161415611289576040517f08c379a000000000000000000000000000000000000000000000000000000000815260040161128090612912565b60405180910390fd5b611294838383611b6f565b61129f60008261100c565b6001606860008573ffffffffffffffffffffffffffffffffffffffff1673ffffffffffffffffffffffffffffffffffffffff16815260200190815260200160002060008282546112ef9190612c7e565b925050819055506001606860008473ffffffffffffffffffffffffffffffffffffffff1673ffffffffffffffffffffffffffffffffffffffff16815260200190815260200160002060008282546113469190612bf7565b92505081905550816067600083815260200190815260200160002060006101000a81548173ffffffffffffffffffffffffffffffffffffffff021916908373ffffffffffffffffffffffffffffffffffffffff160217905550808273ffffffffffffffffffffffffffffffffffffffff168473ffffffffffffffffffffffffffffffffffffffff167fddf252ad1be2c89b69c2b068fc378daa952ba7f163c4a11628f55a4df523b3ef60405160405180910390a4611405838383611b74565b505050565b600060c960009054906101000a900473ffffffffffffffffffffffffffffffffffffffff1690508160c960006101000a81548173ffffffffffffffffffffffffffffffffffffffff021916908373ffffffffffffffffffffffffffffffffffffffff1602179055508173ffffffffffffffffffffffffffffffffffffffff168173ffffffffffffffffffffffffffffffffffffffff167f8be0079c531659141344cd1fd0a4f28419497f9722a3daafe3b4186f6b6457e060405160405180910390a35050565b60008060019054906101000a900460ff16156115475760018260ff161480156114ff57506114fd30611b79565b155b61153e576040517f08c379a0000000000000000000000000000000000000000000000000000000008152600401611535906129f2565b60405180910390fd5b600090506115bb565b8160ff1660008054906101000a900460ff1660ff161061159c576040517f08c379a0000000000000000000000000000000000000000000000000000000008152600401611593906129f2565b60405180910390fd5b816000806101000a81548160ff021916908360ff160217905550600190505b919050565b600060019054906101000a900460ff1661160f576040517f08c379a000000000000000000000000000000000000000000000000000000000815260040161160690612af2565b60405180910390fd5b6116198282611b9c565b5050565b600060019054906101000a900460ff1661166c576040517f08c379a000000000000000000000000000000000000000000000000000000000815260040161166390612af2565b60405180910390fd5b611674611c1d565b565b8173ffffffffffffffffffffffffffffffffffffffff168373ffffffffffffffffffffffffffffffffffffffff1614156116e5576040517f08c379a00000000000000000000000000000000000000000000000000000000081526004016116dc90612932565b60405180910390fd5b80606a60008573ffffffffffffffffffffffffffffffffffffffff1673ffffffffffffffffffffffffffffffffffffffff16815260200190815260200160002060008473ffffffffffffffffffffffffffffffffffffffff1673ffffffffffffffffffffffffffffffffffffffff16815260200190815260200160002060006101000a81548160ff0219169083151502179055508173ffffffffffffffffffffffffffffffffffffffff168373ffffffffffffffffffffffffffffffffffffffff167f17307eab39ab6107e8899845ad3d59bd9653f200f220920489ca2b5937696c31836040516117d6919061283a565b60405180910390a3505050565b6117ee8484846111a3565b6117fa84848484611c7e565b611839576040517f08c379a000000000000000000000000000000000000000000000000000000000815260040161183090612892565b60405180910390fd5b50505050565b606060405180602001604052806000815250905090565b606061186182610f98565b6118a0576040517f08c379a000000000000000000000000000000000000000000000000000000000815260040161189790612a92565b60405180910390fd5b60006118aa61183f565b905060008151116118ca57604051806020016040528060008152506118f5565b806118d484611e15565b6040516020016118e59291906127af565b6040516020818303038152906040525b915050919050565b6001816000016000828254019250508190555050565b600081600001549050919050565b600073ffffffffffffffffffffffffffffffffffffffff168273ffffffffffffffffffffffffffffffffffffffff161415611991576040517f08c379a000000000000000000000000000000000000000000000000000000000815260040161198890612a12565b60405180910390fd5b61199a81610f98565b156119da576040517f08c379a00000000000000000000000000000000000000000000000000000000081526004016119d1906128f2565b60405180910390fd5b6119e660008383611b6f565b6001606860008473ffffffffffffffffffffffffffffffffffffffff1673ffffffffffffffffffffffffffffffffffffffff1681526020019081526020016000206000828254611a369190612bf7565b92505081905550816067600083815260200190815260200160002060006101000a81548173ffffffffffffffffffffffffffffffffffffffff021916908373ffffffffffffffffffffffffffffffffffffffff160217905550808273ffffffffffffffffffffffffffffffffffffffff16600073ffffffffffffffffffffffffffffffffffffffff167fddf252ad1be2c89b69c2b068fc378daa952ba7f163c4a11628f55a4df523b3ef60405160405180910390a4611af760008383611b74565b5050565b611b0482610f98565b611b43576040517f08c379a0000000000000000000000000000000000000000000000000000000008152600401611b3a906129d2565b60405180910390fd5b80609760008481526020019081526020016000209080519060200190611b6a929190611fc2565b505050565b505050565b505050565b6000808273ffffffffffffffffffffffffffffffffffffffff163b119050919050565b600060019054906101000a900460ff16611beb576040517f08c379a0000000000000000000000000000000000000000000000000000000008152600401611be290612af2565b60405180910390fd5b8160659080519060200190611c01929190611fc2565b508060669080519060200190611c18929190611fc2565b505050565b600060019054906101000a900460ff16611c6c576040517f08c379a0000000000000000000000000000000000000000000000000000000008152600401611c6390612af2565b60405180910390fd5b611c7c611c77611004565b61140a565b565b6000611c9f8473ffffffffffffffffffffffffffffffffffffffff16611b79565b15611e08578373ffffffffffffffffffffffffffffffffffffffff1663150b7a02611cc8611004565b8786866040518563ffffffff1660e01b8152600401611cea94939291906127ee565b602060405180830381600087803b158015611d0457600080fd5b505af1925050508015611d3557506040513d601f19601f82011682018060405250810190611d3291906123c2565b60015b611db8573d8060008114611d65576040519150601f19603f3d011682016040523d82523d6000602084013e611d6a565b606091505b50600081511415611db0576040517f08c379a0000000000000000000000000000000000000000000000000000000008152600401611da790612892565b60405180910390fd5b805181602001fd5b63150b7a0260e01b7bffffffffffffffffffffffffffffffffffffffffffffffffffffffff1916817bffffffffffffffffffffffffffffffffffffffffffffffffffffffff191614915050611e0d565b600190505b949350505050565b60606000821415611e5d576040518060400160405280600181526020017f30000000000000000000000000000000000000000000000000000000000000008152509050611fbd565b600082905060005b60008214611e8f578080611e7890612dea565b915050600a82611e889190612c4d565b9150611e65565b60008167ffffffffffffffff811115611ed1577f4e487b7100000000000000000000000000000000000000000000000000000000600052604160045260246000fd5b6040519080825280601f01601f191660200182016040528015611f035781602001600182028036833780820191505090505b5090505b60008514611fb657600182611f1c9190612c7e565b9150600a85611f2b9190612e33565b6030611f379190612bf7565b60f81b818381518110611f73577f4e487b7100000000000000000000000000000000000000000000000000000000600052603260045260246000fd5b60200101907effffffffffffffffffffffffffffffffffffffffffffffffffffffffffffff1916908160001a905350600a85611faf9190612c4d565b9450611f07565b8093505050505b919050565b828054611fce90612d87565b90600052602060002090601f016020900481019282611ff05760008555612037565b82601f1061200957805160ff1916838001178555612037565b82800160010185558215612037579182015b8281111561203657825182559160200191906001019061201b565b5b5090506120449190612048565b5090565b5b80821115612061576000816000905550600101612049565b5090565b600061207861207384612b52565b612b2d565b90508281526020810184848401111561209057600080fd5b61209b848285612d45565b509392505050565b60006120b66120b184612b83565b612b2d565b9050828152602081018484840111156120ce57600080fd5b6120d9848285612d45565b509392505050565b6000813590506120f0816134c5565b92915050565b600081359050612105816134dc565b92915050565b60008135905061211a816134f3565b92915050565b60008151905061212f816134f3565b92915050565b600082601f83011261214657600080fd5b8135612156848260208601612065565b91505092915050565b600082601f83011261217057600080fd5b81356121808482602086016120a3565b91505092915050565b6000813590506121988161350a565b92915050565b6000602082840312156121b057600080fd5b60006121be848285016120e1565b91505092915050565b600080604083850312156121da57600080fd5b60006121e8858286016120e1565b92505060206121f9858286016120e1565b9150509250929050565b60008060006060848603121561221857600080fd5b6000612226868287016120e1565b9350506020612237868287016120e1565b925050604061224886828701612189565b9150509250925092565b6000806000806080858703121561226857600080fd5b6000612276878288016120e1565b9450506020612287878288016120e1565b935050604061229887828801612189565b925050606085013567ffffffffffffffff8111156122b557600080fd5b6122c187828801612135565b91505092959194509250565b600080604083850312156122e057600080fd5b60006122ee858286016120e1565b92505060206122ff858286016120f6565b9150509250929050565b6000806040838503121561231c57600080fd5b600061232a858286016120e1565b925050602083013567ffffffffffffffff81111561234757600080fd5b6123538582860161215f565b9150509250929050565b6000806040838503121561237057600080fd5b600061237e858286016120e1565b925050602061238f85828601612189565b9150509250929050565b6000602082840312156123ab57600080fd5b60006123b98482850161210b565b91505092915050565b6000602082840312156123d457600080fd5b60006123e284828501612120565b91505092915050565b6000602082840312156123fd57600080fd5b600061240b84828501612189565b91505092915050565b61241d81612cb2565b82525050565b61242c81612cc4565b82525050565b600061243d82612bb4565b6124478185612bca565b9350612457818560208601612d54565b61246081612f20565b840191505092915050565b61247481612d33565b82525050565b600061248582612bbf565b61248f8185612bdb565b935061249f818560208601612d54565b6124a881612f20565b840191505092915050565b60006124be82612bbf565b6124c88185612bec565b93506124d8818560208601612d54565b80840191505092915050565b60006124f1603283612bdb565b91506124fc82612f31565b604082019050919050565b6000612514602683612bdb565b915061251f82612f80565b604082019050919050565b6000612537602583612bdb565b915061254282612fcf565b604082019050919050565b600061255a601c83612bdb565b91506125658261301e565b602082019050919050565b600061257d602483612bdb565b915061258882613047565b604082019050919050565b60006125a0601983612bdb565b91506125ab82613096565b602082019050919050565b60006125c3602c83612bdb565b91506125ce826130bf565b604082019050919050565b60006125e6603883612bdb565b91506125f18261310e565b604082019050919050565b6000612609602a83612bdb565b91506126148261315d565b604082019050919050565b600061262c602983612bdb565b9150612637826131ac565b604082019050919050565b600061264f602e83612bdb565b915061265a826131fb565b604082019050919050565b6000612672602e83612bdb565b915061267d8261324a565b604082019050919050565b6000612695602083612bdb565b91506126a082613299565b602082019050919050565b60006126b8603183612bdb565b91506126c3826132c2565b604082019050919050565b60006126db602c83612bdb565b91506126e682613311565b604082019050919050565b60006126fe602083612bdb565b915061270982613360565b602082019050919050565b6000612721602f83612bdb565b915061272c82613389565b604082019050919050565b6000612744602183612bdb565b915061274f826133d8565b604082019050919050565b6000612767603183612bdb565b915061277282613427565b604082019050919050565b600061278a602b83612bdb565b915061279582613476565b604082019050919050565b6127a981612d1c565b82525050565b60006127bb82856124b3565b91506127c782846124b3565b91508190509392505050565b60006020820190506127e86000830184612414565b92915050565b60006080820190506128036000830187612414565b6128106020830186612414565b61281d60408301856127a0565b818103606083015261282f8184612432565b905095945050505050565b600060208201905061284f6000830184612423565b92915050565b600060208201905061286a600083018461246b565b92915050565b6000602082019050818103600083015261288a818461247a565b905092915050565b600060208201905081810360008301526128ab816124e4565b9050919050565b600060208201905081810360008301526128cb81612507565b9050919050565b600060208201905081810360008301526128eb8161252a565b9050919050565b6000602082019050818103600083015261290b8161254d565b9050919050565b6000602082019050818103600083015261292b81612570565b9050919050565b6000602082019050818103600083015261294b81612593565b9050919050565b6000602082019050818103600083015261296b816125b6565b9050919050565b6000602082019050818103600083015261298b816125d9565b9050919050565b600060208201905081810360008301526129ab816125fc565b9050919050565b600060208201905081810360008301526129cb8161261f565b9050919050565b600060208201905081810360008301526129eb81612642565b9050919050565b60006020820190508181036000830152612a0b81612665565b9050919050565b60006020820190508181036000830152612a2b81612688565b9050919050565b60006020820190508181036000830152612a4b816126ab565b9050919050565b60006020820190508181036000830152612a6b816126ce565b9050919050565b60006020820190508181036000830152612a8b816126f1565b9050919050565b60006020820190508181036000830152612aab81612714565b9050919050565b60006020820190508181036000830152612acb81612737565b9050919050565b60006020820190508181036000830152612aeb8161275a565b9050919050565b60006020820190508181036000830152612b0b8161277d565b9050919050565b6000602082019050612b2760008301846127a0565b92915050565b6000612b37612b48565b9050612b438282612db9565b919050565b6000604051905090565b600067ffffffffffffffff821115612b6d57612b6c612ef1565b5b612b7682612f20565b9050602081019050919050565b600067ffffffffffffffff821115612b9e57612b9d612ef1565b5b612ba782612f20565b9050602081019050919050565b600081519050919050565b600081519050919050565b600082825260208201905092915050565b600082825260208201905092915050565b600081905092915050565b6000612c0282612d1c565b9150612c0d83612d1c565b9250827fffffffffffffffffffffffffffffffffffffffffffffffffffffffffffffffff03821115612c4257612c41612e64565b5b828201905092915050565b6000612c5882612d1c565b9150612c6383612d1c565b925082612c7357612c72612e93565b5b828204905092915050565b6000612c8982612d1c565b9150612c9483612d1c565b925082821015612ca757612ca6612e64565b5b828203905092915050565b6000612cbd82612cfc565b9050919050565b60008115159050919050565b60007fffffffff0000000000000000000000000000000000000000000000000000000082169050919050565b600073ffffffffffffffffffffffffffffffffffffffff82169050919050565b6000819050919050565b600060ff82169050919050565b6000612d3e82612d26565b9050919050565b82818337600083830152505050565b60005b83811015612d72578082015181840152602081019050612d57565b83811115612d81576000848401525b50505050565b60006002820490506001821680612d9f57607f821691505b60208210811415612db357612db2612ec2565b5b50919050565b612dc282612f20565b810181811067ffffffffffffffff82111715612de157612de0612ef1565b5b80604052505050565b6000612df582612d1c565b91507fffffffffffffffffffffffffffffffffffffffffffffffffffffffffffffffff821415612e2857612e27612e64565b5b600182019050919050565b6000612e3e82612d1c565b9150612e4983612d1c565b925082612e5957612e58612e93565b5b828206905092915050565b7f4e487b7100000000000000000000000000000000000000000000000000000000600052601160045260246000fd5b7f4e487b7100000000000000000000000000000000000000000000000000000000600052601260045260246000fd5b7f4e487b7100000000000000000000000000000000000000000000000000000000600052602260045260246000fd5b7f4e487b7100000000000000000000000000000000000000000000000000000000600052604160045260246000fd5b6000601f19601f8301169050919050565b7f4552433732313a207472616e7366657220746f206e6f6e20455243373231526560008201527f63656976657220696d706c656d656e7465720000000000000000000000000000602082015250565b7f4f776e61626c653a206e6577206f776e657220697320746865207a65726f206160008201527f6464726573730000000000000000000000000000000000000000000000000000602082015250565b7f4552433732313a207472616e736665722066726f6d20696e636f72726563742060008201527f6f776e6572000000000000000000000000000000000000000000000000000000602082015250565b7f4552433732313a20746f6b656e20616c7265616479206d696e74656400000000600082015250565b7f4552433732313a207472616e7366657220746f20746865207a65726f2061646460008201527f7265737300000000000000000000000000000000000000000000000000000000602082015250565b7f4552433732313a20617070726f766520746f2063616c6c657200000000000000600082015250565b7f4552433732313a206f70657261746f7220717565727920666f72206e6f6e657860008201527f697374656e7420746f6b656e0000000000000000000000000000000000000000602082015250565b7f4552433732313a20617070726f76652063616c6c6572206973206e6f74206f7760008201527f6e6572206e6f7220617070726f76656420666f7220616c6c0000000000000000602082015250565b7f4552433732313a2062616c616e636520717565727920666f7220746865207a6560008201527f726f206164647265737300000000000000000000000000000000000000000000602082015250565b7f4552433732313a206f776e657220717565727920666f72206e6f6e657869737460008201527f656e7420746f6b656e0000000000000000000000000000000000000000000000602082015250565b7f45524337323155524953746f726167653a2055524920736574206f66206e6f6e60008201527f6578697374656e7420746f6b656e000000000000000000000000000000000000602082015250565b7f496e697469616c697a61626c653a20636f6e747261637420697320616c72656160008201527f647920696e697469616c697a6564000000000000000000000000000000000000602082015250565b7f4552433732313a206d696e7420746f20746865207a65726f2061646472657373600082015250565b7f45524337323155524953746f726167653a2055524920717565727920666f722060008201527f6e6f6e6578697374656e7420746f6b656e000000000000000000000000000000602082015250565b7f4552433732313a20617070726f76656420717565727920666f72206e6f6e657860008201527f697374656e7420746f6b656e0000000000000000000000000000000000000000602082015250565b7f4f776e61626c653a2063616c6c6572206973206e6f7420746865206f776e6572600082015250565b7f4552433732314d657461646174613a2055524920717565727920666f72206e6f60008201527f6e6578697374656e7420746f6b656e0000000000000000000000000000000000602082015250565b7f4552433732313a20617070726f76616c20746f2063757272656e74206f776e6560008201527f7200000000000000000000000000000000000000000000000000000000000000602082015250565b7f4552433732313a207472616e736665722063616c6c6572206973206e6f74206f60008201527f776e6572206e6f7220617070726f766564000000000000000000000000000000602082015250565b7f496e697469616c697a61626c653a20636f6e7472616374206973206e6f74206960008201527f6e697469616c697a696e67000000000000000000000000000000000000000000602082015250565b6134ce81612cb2565b81146134d957600080fd5b50565b6134e581612cc4565b81146134f057600080fd5b50565b6134fc81612cd0565b811461350757600080fd5b50565b61351381612d1c565b811461351e57600080fd5b5056fea26469706673582212206823c1ea4837bac519836dc2a204fa4eac7be5e8376c7ab06b824dffff61df3464736f6c63430008020033",
  "linkReferences": {},
  "deployedLinkReferences": {}
}