{
  "_format": "hh-sol-artifact-1",
  "contractName": "RachelV2",
  "sourceName": "contracts/RachelV2.sol",
  "abi": [
    {
      "anonymous": false,
      "inputs": [
        {
          "indexed": true,
          "internalType": "address",
          "name": "owner",
          "type": "address"
        },
        {
          "indexed": true,
          "internalType": "address",
          "name": "approved",
          "type": "address"
        },
        {
          "indexed": true,
          "internalType": "uint256",
          "name": "tokenId",
          "type": "uint256"
        }
      ],
      "name": "Approval",
      "type": "event"
    },
    {
      "anonymous": false,
      "inputs": [
        {
          "indexed": true,
          "internalType": "address",
          "name": "owner",
          "type": "address"
        },
        {
          "indexed": true,
          "internalType": "address",
          "name": "operator",
          "type": "address"
        },
        {
          "indexed": false,
          "internalType": "bool",
          "name": "approved",
          "type": "bool"
        }
      ],
      "name": "ApprovalForAll",
      "type": "event"
    },
    {
      "anonymous": false,
      "inputs": [
        {
          "indexed": false,
          "internalType": "uint8",
          "name": "version",
          "type": "uint8"
        }
      ],
      "name": "Initialized",
      "type": "event"
    },
    {
      "anonymous": false,
      "inputs": [
        {
          "indexed": true,
          "internalType": "address",
          "name": "previousOwner",
          "type": "address"
        },
        {
          "indexed": true,
          "internalType": "address",
          "name": "newOwner",
          "type": "address"
        }
      ],
      "name": "OwnershipTransferred",
      "type": "event"
    },
    {
      "anonymous": false,
      "inputs": [
        {
          "indexed": true,
          "internalType": "address",
          "name": "from",
          "type": "address"
        },
        {
          "indexed": true,
          "internalType": "address",
          "name": "to",
          "type": "address"
        },
        {
          "indexed": true,
          "internalType": "uint256",
          "name": "tokenId",
          "type": "uint256"
        }
      ],
      "name": "Transfer",
      "type": "event"
    },
    {
      "inputs": [
        {
          "internalType": "address",
          "name": "to",
          "type": "address"
        },
        {
          "internalType": "uint256",
          "name": "tokenId",
          "type": "uint256"
        }
      ],
      "name": "approve",
      "outputs": [],
      "stateMutability": "nonpayable",
      "type": "function"
    },
    {
      "inputs": [
        {
          "internalType": "address",
          "name": "owner",
          "type": "address"
        }
      ],
      "name": "balanceOf",
      "outputs": [
        {
          "internalType": "uint256",
          "name": "",
          "type": "uint256"
        }
      ],
      "stateMutability": "view",
      "type": "function"
    },
    {
      "inputs": [
        {
          "internalType": "uint256",
          "name": "tokenId",
          "type": "uint256"
        }
      ],
      "name": "getApproved",
      "outputs": [
        {
          "internalType": "address",
          "name": "",
          "type": "address"
        }
      ],
      "stateMutability": "view",
      "type": "function"
    },
    {
      "inputs": [],
      "name": "getCountOfAllNFTs",
      "outputs": [
        {
          "internalType": "uint256",
          "name": "",
          "type": "uint256"
        }
      ],
      "stateMutability": "view",
      "type": "function"
    },
    {
      "inputs": [],
      "name": "getMyNFTs",
      "outputs": [
        {
          "components": [
            {
              "internalType": "uint32",
              "name": "token",
              "type": "uint32"
            },
            {
              "internalType": "string",
              "name": "uri",
              "type": "string"
            }
          ],
          "internalType": "struct RachelV2.NFT[]",
          "name": "",
          "type": "tuple[]"
        }
      ],
      "stateMutability": "view",
      "type": "function"
    },
    {
      "inputs": [],
      "name": "initialize",
      "outputs": [],
      "stateMutability": "nonpayable",
      "type": "function"
    },
    {
      "inputs": [],
      "name": "initializeV2",
      "outputs": [],
      "stateMutability": "nonpayable",
      "type": "function"
    },
    {
      "inputs": [
        {
          "internalType": "address",
          "name": "owner",
          "type": "address"
        },
        {
          "internalType": "address",
          "name": "operator",
          "type": "address"
        }
      ],
      "name": "isApprovedForAll",
      "outputs": [
        {
          "internalType": "bool",
          "name": "",
          "type": "bool"
        }
      ],
      "stateMutability": "view",
      "type": "function"
    },
    {
      "inputs": [
        {
          "internalType": "address",
          "name": "recipient",
          "type": "address"
        },
        {
          "internalType": "string",
          "name": "tokenURI",
          "type": "string"
        }
      ],
      "name": "mintNFT",
      "outputs": [
        {
          "internalType": "uint256",
          "name": "",
          "type": "uint256"
        }
      ],
      "stateMutability": "nonpayable",
      "type": "function"
    },
    {
      "inputs": [
        {
          "internalType": "string",
          "name": "uri",
          "type": "string"
        }
      ],
      "name": "mintNFTFromUser",
      "outputs": [],
      "stateMutability": "nonpayable",
      "type": "function"
    },
    {
      "inputs": [],
      "name": "name",
      "outputs": [
        {
          "internalType": "string",
          "name": "",
          "type": "string"
        }
      ],
      "stateMutability": "view",
      "type": "function"
    },
    {
      "inputs": [],
      "name": "owner",
      "outputs": [
        {
          "internalType": "address",
          "name": "",
          "type": "address"
        }
      ],
      "stateMutability": "view",
      "type": "function"
    },
    {
      "inputs": [
        {
          "internalType": "uint256",
          "name": "tokenId",
          "type": "uint256"
        }
      ],
      "name": "ownerOf",
      "outputs": [
        {
          "internalType": "address",
          "name": "",
          "type": "address"
        }
      ],
      "stateMutability": "view",
      "type": "function"
    },
    {
      "inputs": [],
      "name": "renounceOwnership",
      "outputs": [],
      "stateMutability": "nonpayable",
      "type": "function"
    },
    {
      "inputs": [
        {
          "internalType": "address",
          "name": "from",
          "type": "address"
        },
        {
          "internalType": "address",
          "name": "to",
          "type": "address"
        },
        {
          "internalType": "uint256",
          "name": "tokenId",
          "type": "uint256"
        }
      ],
      "name": "safeTransferFrom",
      "outputs": [],
      "stateMutability": "nonpayable",
      "type": "function"
    },
    {
      "inputs": [
        {
          "internalType": "address",
          "name": "from",
          "type": "address"
        },
        {
          "internalType": "address",
          "name": "to",
          "type": "address"
        },
        {
          "internalType": "uint256",
          "name": "tokenId",
          "type": "uint256"
        },
        {
          "internalType": "bytes",
          "name": "_data",
          "type": "bytes"
        }
      ],
      "name": "safeTransferFrom",
      "outputs": [],
      "stateMutability": "nonpayable",
      "type": "function"
    },
    {
      "inputs": [
        {
          "internalType": "address",
          "name": "to",
          "type": "address"
        },
        {
          "internalType": "uint256",
          "name": "tokenId",
          "type": "uint256"
        }
      ],
      "name": "sendMyNFT",
      "outputs": [
        {
          "internalType": "bool",
          "name": "",
          "type": "bool"
        }
      ],
      "stateMutability": "nonpayable",
      "type": "function"
    },
    {
      "inputs": [
        {
          "internalType": "address",
          "name": "operator",
          "type": "address"
        },
        {
          "internalType": "bool",
          "name": "approved",
          "type": "bool"
        }
      ],
      "name": "setApprovalForAll",
      "outputs": [],
      "stateMutability": "nonpayable",
      "type": "function"
    },
    {
      "inputs": [
        {
          "internalType": "bytes4",
          "name": "interfaceId",
          "type": "bytes4"
        }
      ],
      "name": "supportsInterface",
      "outputs": [
        {
          "internalType": "bool",
          "name": "",
          "type": "bool"
        }
      ],
      "stateMutability": "view",
      "type": "function"
    },
    {
      "inputs": [],
      "name": "symbol",
      "outputs": [
        {
          "internalType": "string",
          "name": "",
          "type": "string"
        }
      ],
      "stateMutability": "view",
      "type": "function"
    },
    {
      "inputs": [
        {
          "internalType": "uint256",
          "name": "index",
          "type": "uint256"
        }
      ],
      "name": "tokenByIndex",
      "outputs": [
        {
          "internalType": "uint256",
          "name": "",
          "type": "uint256"
        }
      ],
      "stateMutability": "view",
      "type": "function"
    },
    {
      "inputs": [
        {
          "internalType": "address",
          "name": "owner",
          "type": "address"
        },
        {
          "internalType": "uint256",
          "name": "index",
          "type": "uint256"
        }
      ],
      "name": "tokenOfOwnerByIndex",
      "outputs": [
        {
          "internalType": "uint256",
          "name": "",
          "type": "uint256"
        }
      ],
      "stateMutability": "view",
      "type": "function"
    },
    {
      "inputs": [
        {
          "internalType": "uint256",
          "name": "tokenId",
          "type": "uint256"
        }
      ],
      "name": "tokenURI",
      "outputs": [
        {
          "internalType": "string",
          "name": "",
          "type": "string"
        }
      ],
      "stateMutability": "view",
      "type": "function"
    },
    {
      "inputs": [],
      "name": "totalSupply",
      "outputs": [
        {
          "internalType": "uint256",
          "name": "",
          "type": "uint256"
        }
      ],
      "stateMutability": "view",
      "type": "function"
    },
    {
      "inputs": [
        {
          "internalType": "address",
          "name": "from",
          "type": "address"
        },
        {
          "internalType": "address",
          "name": "to",
          "type": "address"
        },
        {
          "internalType": "uint256",
          "name": "tokenId",
          "type": "uint256"
        }
      ],
      "name": "transferFrom",
      "outputs": [],
      "stateMutability": "nonpayable",
      "type": "function"
    },
    {
      "inputs": [
        {
          "internalType": "address",
          "name": "newOwner",
          "type": "address"
        }
      ],
      "name": "transferOwnership",
      "outputs": [],
      "stateMutability": "nonpayable",
      "type": "function"
    }
  ],
  "bytecode": "0x608060405234801561001057600080fd5b5061428b806100206000396000f3fe608060405234801561001057600080fd5b506004361061018e5760003560e01c80636352211e116100de57806395d89b4111610097578063c87b56dd11610071578063c87b56dd1461045d578063e985e9c51461048d578063eacabe14146104bd578063f2fde38b146104ed5761018e565b806395d89b4114610407578063a22cb46514610425578063b88d4fde146104415761018e565b80636352211e1461035957806370a0823114610389578063715018a6146103b95780638129fc1c146103c35780638c32d72b146103cd5780638da5cb5b146103e95761018e565b80632f745c591161014b5780634f6ccce7116101255780634f6ccce7146102d157806350b0b2d3146103015780635cd8a76b14610331578063629cb2e41461033b5761018e565b80632f745c591461026757806342006c8c1461029757806342842e0e146102b55761018e565b806301ffc9a71461019357806306fdde03146101c3578063081812fc146101e1578063095ea7b31461021157806318160ddd1461022d57806323b872dd1461024b575b600080fd5b6101ad60048036038101906101a89190612dde565b610509565b6040516101ba9190613436565b60405180910390f35b6101cb61051b565b6040516101d8919061346c565b60405180910390f35b6101fb60048036038101906101f69190612e71565b6105ad565b60405161020891906133ad565b60405180910390f35b61022b60048036038101906102269190612da2565b610632565b005b61023561074a565b604051610242919061374e565b60405180910390f35b61026560048036038101906102609190612c48565b610757565b005b610281600480360381019061027c9190612da2565b6107b7565b60405161028e919061374e565b60405180910390f35b61029f61085c565b6040516102ac919061374e565b60405180910390f35b6102cf60048036038101906102ca9190612c48565b61086d565b005b6102eb60048036038101906102e69190612e71565b61088d565b6040516102f8919061374e565b60405180910390f35b61031b60048036038101906103169190612da2565b610924565b6040516103289190613436565b60405180910390f35b610339610945565b005b610343610a10565b6040516103509190613414565b60405180910390f35b610373600480360381019061036e9190612e71565b610b82565b60405161038091906133ad565b60405180910390f35b6103a3600480360381019061039e9190612be3565b610c34565b6040516103b0919061374e565b60405180910390f35b6103c1610cec565b005b6103cb610d74565b005b6103e760048036038101906103e29190612e30565b610e7c565b005b6103f1610eac565b6040516103fe91906133ad565b60405180910390f35b61040f610ed6565b60405161041c919061346c565b60405180910390f35b61043f600480360381019061043a9190612d12565b610f68565b005b61045b60048036038101906104569190612c97565b610f7e565b005b61047760048036038101906104729190612e71565b610fe0565b604051610484919061346c565b60405180910390f35b6104a760048036038101906104a29190612c0c565b610ff2565b6040516104b49190613436565b60405180910390f35b6104d760048036038101906104d29190612d4e565b611086565b6040516104e4919061374e565b60405180910390f35b61050760048036038101906105029190612be3565b61113a565b005b600061051482611232565b9050919050565b60606065805461052a90613a1d565b80601f016020809104026020016040519081016040528092919081815260200182805461055690613a1d565b80156105a35780601f10610578576101008083540402835291602001916105a3565b820191906000526020600020905b81548152906001019060200180831161058657829003601f168201915b5050505050905090565b60006105b882611314565b6105f7576040517f08c379a00000000000000000000000000000000000000000000000000000000081526004016105ee9061366e565b60405180910390fd5b6069600083815260200190815260200160002060009054906101000a900473ffffffffffffffffffffffffffffffffffffffff169050919050565b600061063d82610b82565b90508073ffffffffffffffffffffffffffffffffffffffff168373ffffffffffffffffffffffffffffffffffffffff1614156106ae576040517f08c379a00000000000000000000000000000000000000000000000000000000081526004016106a5906136ce565b60405180910390fd5b8073ffffffffffffffffffffffffffffffffffffffff166106cd611380565b73ffffffffffffffffffffffffffffffffffffffff1614806106fc57506106fb816106f6611380565b610ff2565b5b61073b576040517f08c379a00000000000000000000000000000000000000000000000000000000081526004016107329061358e565b60405180910390fd5b6107458383611388565b505050565b600060fe80549050905090565b610768610762611380565b82611441565b6107a7576040517f08c379a000000000000000000000000000000000000000000000000000000000815260040161079e906136ee565b60405180910390fd5b6107b283838361151f565b505050565b60006107c283610c34565b8210610803576040517f08c379a00000000000000000000000000000000000000000000000000000000081526004016107fa9061348e565b60405180910390fd5b60fc60008473ffffffffffffffffffffffffffffffffffffffff1673ffffffffffffffffffffffffffffffffffffffff168152602001908152602001600020600083815260200190815260200160002054905092915050565b600061086860fb611786565b905090565b61088883838360405180602001604052806000815250610f7e565b505050565b600061089761074a565b82106108d8576040517f08c379a00000000000000000000000000000000000000000000000000000000081526004016108cf9061370e565b60405180910390fd5b60fe8281548110610912577f4e487b7100000000000000000000000000000000000000000000000000000000600052603260045260246000fd5b90600052602060002001549050919050565b60006109308383610632565b61093b33848461086d565b6001905092915050565b60006109516001611794565b90508015610975576001600060016101000a81548160ff0219169083151502179055505b61012e60009054906101000a900460ff161561099057600080fd5b600161012e60006101000a81548160ff0219169083151502179055506109b4611884565b8015610a0d5760008060016101000a81548160ff0219169083151502179055507f7f26b83ff96e1f2b6a682f133852f6798a09c465da95921460cefb38474024986001604051610a049190613451565b60405180910390a15b50565b606060003390506000610a2282610c34565b905060008167ffffffffffffffff811115610a66577f4e487b7100000000000000000000000000000000000000000000000000000000600052604160045260246000fd5b604051908082528060200260200182016040528015610a9f57816020015b610a8c6129e7565b815260200190600190039081610a845790505b50905060005b82811015610b78576000610ab985836107b7565b9050610ac481610fe0565b838381518110610afd577f4e487b7100000000000000000000000000000000000000000000000000000000600052603260045260246000fd5b60200260200101516020018190525080838381518110610b46577f4e487b7100000000000000000000000000000000000000000000000000000000600052603260045260246000fd5b60200260200101516000019063ffffffff16908163ffffffff1681525050508080610b7090613a80565b915050610aa5565b5080935050505090565b6000806067600084815260200190815260200160002060009054906101000a900473ffffffffffffffffffffffffffffffffffffffff169050600073ffffffffffffffffffffffffffffffffffffffff168173ffffffffffffffffffffffffffffffffffffffff161415610c2b576040517f08c379a0000000000000000000000000000000000000000000000000000000008152600401610c22906135ce565b60405180910390fd5b80915050919050565b60008073ffffffffffffffffffffffffffffffffffffffff168273ffffffffffffffffffffffffffffffffffffffff161415610ca5576040517f08c379a0000000000000000000000000000000000000000000000000000000008152600401610c9c906135ae565b60405180910390fd5b606860008373ffffffffffffffffffffffffffffffffffffffff1673ffffffffffffffffffffffffffffffffffffffff168152602001908152602001600020549050919050565b610cf4611380565b73ffffffffffffffffffffffffffffffffffffffff16610d12610eac565b73ffffffffffffffffffffffffffffffffffffffff1614610d68576040517f08c379a0000000000000000000000000000000000000000000000000000000008152600401610d5f9061368e565b60405180910390fd5b610d7260006118d5565b565b6000610d806001611794565b90508015610da4576001600060016101000a81548160ff0219169083151502179055505b610e186040518060400160405280600681526020017f52616368656c00000000000000000000000000000000000000000000000000008152506040518060400160405280600381526020017f524549000000000000000000000000000000000000000000000000000000000081525061199b565b610e206119f8565b8015610e795760008060016101000a81548160ff0219169083151502179055507f7f26b83ff96e1f2b6a682f133852f6798a09c465da95921460cefb38474024986001604051610e709190613451565b60405180910390a15b50565b610e8660fb611a51565b6000610e9260fb611786565b9050610e9e3382611a67565b610ea88183611c41565b5050565b600060c960009054906101000a900473ffffffffffffffffffffffffffffffffffffffff16905090565b606060668054610ee590613a1d565b80601f0160208091040260200160405190810160405280929190818152602001828054610f1190613a1d565b8015610f5e5780601f10610f3357610100808354040283529160200191610f5e565b820191906000526020600020905b815481529060010190602001808311610f4157829003601f168201915b5050505050905090565b610f7a610f73611380565b8383611cb5565b5050565b610f8f610f89611380565b83611441565b610fce576040517f08c379a0000000000000000000000000000000000000000000000000000000008152600401610fc5906136ee565b60405180910390fd5b610fda84848484611e22565b50505050565b6060610feb82611e7e565b9050919050565b6000606a60008473ffffffffffffffffffffffffffffffffffffffff1673ffffffffffffffffffffffffffffffffffffffff16815260200190815260200160002060008373ffffffffffffffffffffffffffffffffffffffff1673ffffffffffffffffffffffffffffffffffffffff16815260200190815260200160002060009054906101000a900460ff16905092915050565b6000611090611380565b73ffffffffffffffffffffffffffffffffffffffff166110ae610eac565b73ffffffffffffffffffffffffffffffffffffffff1614611104576040517f08c379a00000000000000000000000000000000000000000000000000000000081526004016110fb9061368e565b60405180910390fd5b61110e60fb611a51565b600061111a60fb611786565b90506111268482611a67565b6111308184611c41565b8091505092915050565b611142611380565b73ffffffffffffffffffffffffffffffffffffffff16611160610eac565b73ffffffffffffffffffffffffffffffffffffffff16146111b6576040517f08c379a00000000000000000000000000000000000000000000000000000000081526004016111ad9061368e565b60405180910390fd5b600073ffffffffffffffffffffffffffffffffffffffff168173ffffffffffffffffffffffffffffffffffffffff161415611226576040517f08c379a000000000000000000000000000000000000000000000000000000000815260040161121d906134ce565b60405180910390fd5b61122f816118d5565b50565b60007f80ac58cd000000000000000000000000000000000000000000000000000000007bffffffffffffffffffffffffffffffffffffffffffffffffffffffff1916827bffffffffffffffffffffffffffffffffffffffffffffffffffffffff191614806112fd57507f5b5e139f000000000000000000000000000000000000000000000000000000007bffffffffffffffffffffffffffffffffffffffffffffffffffffffff1916827bffffffffffffffffffffffffffffffffffffffffffffffffffffffff1916145b8061130d575061130c82611fd0565b5b9050919050565b60008073ffffffffffffffffffffffffffffffffffffffff166067600084815260200190815260200160002060009054906101000a900473ffffffffffffffffffffffffffffffffffffffff1673ffffffffffffffffffffffffffffffffffffffff1614159050919050565b600033905090565b816069600083815260200190815260200160002060006101000a81548173ffffffffffffffffffffffffffffffffffffffff021916908373ffffffffffffffffffffffffffffffffffffffff160217905550808273ffffffffffffffffffffffffffffffffffffffff166113fb83610b82565b73ffffffffffffffffffffffffffffffffffffffff167f8c5be1e5ebec7d5bd14f71427d1e84f3dd0314c0f7b2291e5b200ac8c7c3b92560405160405180910390a45050565b600061144c82611314565b61148b576040517f08c379a00000000000000000000000000000000000000000000000000000000081526004016114829061356e565b60405180910390fd5b600061149683610b82565b90508073ffffffffffffffffffffffffffffffffffffffff168473ffffffffffffffffffffffffffffffffffffffff1614806114d857506114d78185610ff2565b5b8061151657508373ffffffffffffffffffffffffffffffffffffffff166114fe846105ad565b73ffffffffffffffffffffffffffffffffffffffff16145b91505092915050565b8273ffffffffffffffffffffffffffffffffffffffff1661153f82610b82565b73ffffffffffffffffffffffffffffffffffffffff1614611595576040517f08c379a000000000000000000000000000000000000000000000000000000000815260040161158c906134ee565b60405180910390fd5b600073ffffffffffffffffffffffffffffffffffffffff168273ffffffffffffffffffffffffffffffffffffffff161415611605576040517f08c379a00000000000000000000000000000000000000000000000000000000081526004016115fc9061352e565b60405180910390fd5b61161083838361203a565b61161b600082611388565b6001606860008573ffffffffffffffffffffffffffffffffffffffff1673ffffffffffffffffffffffffffffffffffffffff168152602001908152602001600020600082825461166b9190613904565b925050819055506001606860008473ffffffffffffffffffffffffffffffffffffffff1673ffffffffffffffffffffffffffffffffffffffff16815260200190815260200160002060008282546116c2919061387d565b92505081905550816067600083815260200190815260200160002060006101000a81548173ffffffffffffffffffffffffffffffffffffffff021916908373ffffffffffffffffffffffffffffffffffffffff160217905550808273ffffffffffffffffffffffffffffffffffffffff168473ffffffffffffffffffffffffffffffffffffffff167fddf252ad1be2c89b69c2b068fc378daa952ba7f163c4a11628f55a4df523b3ef60405160405180910390a461178183838361204a565b505050565b600081600001549050919050565b60008060019054906101000a900460ff161561180b5760018260ff161480156117c357506117c13061204f565b155b611802576040517f08c379a00000000000000000000000000000000000000000000000000000000081526004016117f99061360e565b60405180910390fd5b6000905061187f565b8160ff1660008054906101000a900460ff1660ff1610611860576040517f08c379a00000000000000000000000000000000000000000000000000000000081526004016118579061360e565b60405180910390fd5b816000806101000a81548160ff021916908360ff160217905550600190505b919050565b600060019054906101000a900460ff166118d3576040517f08c379a00000000000000000000000000000000000000000000000000000000081526004016118ca9061372e565b60405180910390fd5b565b600060c960009054906101000a900473ffffffffffffffffffffffffffffffffffffffff1690508160c960006101000a81548173ffffffffffffffffffffffffffffffffffffffff021916908373ffffffffffffffffffffffffffffffffffffffff1602179055508173ffffffffffffffffffffffffffffffffffffffff168173ffffffffffffffffffffffffffffffffffffffff167f8be0079c531659141344cd1fd0a4f28419497f9722a3daafe3b4186f6b6457e060405160405180910390a35050565b600060019054906101000a900460ff166119ea576040517f08c379a00000000000000000000000000000000000000000000000000000000081526004016119e19061372e565b60405180910390fd5b6119f48282612072565b5050565b600060019054906101000a900460ff16611a47576040517f08c379a0000000000000000000000000000000000000000000000000000000008152600401611a3e9061372e565b60405180910390fd5b611a4f6120f3565b565b6001816000016000828254019250508190555050565b600073ffffffffffffffffffffffffffffffffffffffff168273ffffffffffffffffffffffffffffffffffffffff161415611ad7576040517f08c379a0000000000000000000000000000000000000000000000000000000008152600401611ace9061362e565b60405180910390fd5b611ae081611314565b15611b20576040517f08c379a0000000000000000000000000000000000000000000000000000000008152600401611b179061350e565b60405180910390fd5b611b2c6000838361203a565b6001606860008473ffffffffffffffffffffffffffffffffffffffff1673ffffffffffffffffffffffffffffffffffffffff1681526020019081526020016000206000828254611b7c919061387d565b92505081905550816067600083815260200190815260200160002060006101000a81548173ffffffffffffffffffffffffffffffffffffffff021916908373ffffffffffffffffffffffffffffffffffffffff160217905550808273ffffffffffffffffffffffffffffffffffffffff16600073ffffffffffffffffffffffffffffffffffffffff167fddf252ad1be2c89b69c2b068fc378daa952ba7f163c4a11628f55a4df523b3ef60405160405180910390a4611c3d6000838361204a565b5050565b611c4a82611314565b611c89576040517f08c379a0000000000000000000000000000000000000000000000000000000008152600401611c80906135ee565b60405180910390fd5b80609760008481526020019081526020016000209080519060200190611cb0929190612a07565b505050565b8173ffffffffffffffffffffffffffffffffffffffff168373ffffffffffffffffffffffffffffffffffffffff161415611d24576040517f08c379a0000000000000000000000000000000000000000000000000000000008152600401611d1b9061354e565b60405180910390fd5b80606a60008573ffffffffffffffffffffffffffffffffffffffff1673ffffffffffffffffffffffffffffffffffffffff16815260200190815260200160002060008473ffffffffffffffffffffffffffffffffffffffff1673ffffffffffffffffffffffffffffffffffffffff16815260200190815260200160002060006101000a81548160ff0219169083151502179055508173ffffffffffffffffffffffffffffffffffffffff168373ffffffffffffffffffffffffffffffffffffffff167f17307eab39ab6107e8899845ad3d59bd9653f200f220920489ca2b5937696c3183604051611e159190613436565b60405180910390a3505050565b611e2d84848461151f565b611e3984848484612154565b611e78576040517f08c379a0000000000000000000000000000000000000000000000000000000008152600401611e6f906134ae565b60405180910390fd5b50505050565b6060611e8982611314565b611ec8576040517f08c379a0000000000000000000000000000000000000000000000000000000008152600401611ebf9061364e565b60405180910390fd5b6000609760008481526020019081526020016000208054611ee890613a1d565b80601f0160208091040260200160405190810160405280929190818152602001828054611f1490613a1d565b8015611f615780601f10611f3657610100808354040283529160200191611f61565b820191906000526020600020905b815481529060010190602001808311611f4457829003601f168201915b505050505090506000611f726122eb565b9050600081511415611f88578192505050611fcb565b600082511115611fbd578082604051602001611fa5929190613389565b60405160208183030381529060405292505050611fcb565b611fc684612302565b925050505b919050565b60007f01ffc9a7000000000000000000000000000000000000000000000000000000007bffffffffffffffffffffffffffffffffffffffffffffffffffffffff1916827bffffffffffffffffffffffffffffffffffffffffffffffffffffffff1916149050919050565b6120458383836123a9565b505050565b505050565b6000808273ffffffffffffffffffffffffffffffffffffffff163b119050919050565b600060019054906101000a900460ff166120c1576040517f08c379a00000000000000000000000000000000000000000000000000000000081526004016120b89061372e565b60405180910390fd5b81606590805190602001906120d7929190612a07565b5080606690805190602001906120ee929190612a07565b505050565b600060019054906101000a900460ff16612142576040517f08c379a00000000000000000000000000000000000000000000000000000000081526004016121399061372e565b60405180910390fd5b61215261214d611380565b6118d5565b565b60006121758473ffffffffffffffffffffffffffffffffffffffff1661204f565b156122de578373ffffffffffffffffffffffffffffffffffffffff1663150b7a0261219e611380565b8786866040518563ffffffff1660e01b81526004016121c094939291906133c8565b602060405180830381600087803b1580156121da57600080fd5b505af192505050801561220b57506040513d601f19601f820116820180604052508101906122089190612e07565b60015b61228e573d806000811461223b576040519150601f19603f3d011682016040523d82523d6000602084013e612240565b606091505b50600081511415612286576040517f08c379a000000000000000000000000000000000000000000000000000000000815260040161227d906134ae565b60405180910390fd5b805181602001fd5b63150b7a0260e01b7bffffffffffffffffffffffffffffffffffffffffffffffffffffffff1916817bffffffffffffffffffffffffffffffffffffffffffffffffffffffff1916149150506122e3565b600190505b949350505050565b606060405180602001604052806000815250905090565b606061230d82611314565b61234c576040517f08c379a0000000000000000000000000000000000000000000000000000000008152600401612343906136ae565b60405180910390fd5b60006123566122eb565b9050600081511161237657604051806020016040528060008152506123a1565b80612380846124bd565b604051602001612391929190613389565b6040516020818303038152906040525b915050919050565b6123b483838361266a565b600073ffffffffffffffffffffffffffffffffffffffff168373ffffffffffffffffffffffffffffffffffffffff1614156123f7576123f28161266f565b612436565b8173ffffffffffffffffffffffffffffffffffffffff168373ffffffffffffffffffffffffffffffffffffffff16146124355761243483826126b8565b5b5b600073ffffffffffffffffffffffffffffffffffffffff168273ffffffffffffffffffffffffffffffffffffffff1614156124795761247481612825565b6124b8565b8273ffffffffffffffffffffffffffffffffffffffff168273ffffffffffffffffffffffffffffffffffffffff16146124b7576124b68282612968565b5b5b505050565b60606000821415612505576040518060400160405280600181526020017f30000000000000000000000000000000000000000000000000000000000000008152509050612665565b600082905060005b6000821461253757808061252090613a80565b915050600a8261253091906138d3565b915061250d565b60008167ffffffffffffffff811115612579577f4e487b7100000000000000000000000000000000000000000000000000000000600052604160045260246000fd5b6040519080825280601f01601f1916602001820160405280156125ab5781602001600182028036833780820191505090505b5090505b6000851461265e576001826125c49190613904565b9150600a856125d39190613ac9565b60306125df919061387d565b60f81b81838151811061261b577f4e487b7100000000000000000000000000000000000000000000000000000000600052603260045260246000fd5b60200101907effffffffffffffffffffffffffffffffffffffffffffffffffffffffffffff1916908160001a905350600a8561265791906138d3565b94506125af565b8093505050505b919050565b505050565b60fe8054905060ff60008381526020019081526020016000208190555060fe81908060018154018082558091505060019003906000526020600020016000909190919091505550565b600060016126c584610c34565b6126cf9190613904565b9050600060fd60008481526020019081526020016000205490508181146127b457600060fc60008673ffffffffffffffffffffffffffffffffffffffff1673ffffffffffffffffffffffffffffffffffffffff16815260200190815260200160002060008481526020019081526020016000205490508060fc60008773ffffffffffffffffffffffffffffffffffffffff1673ffffffffffffffffffffffffffffffffffffffff1681526020019081526020016000206000848152602001908152602001600020819055508160fd600083815260200190815260200160002081905550505b60fd60008481526020019081526020016000206000905560fc60008573ffffffffffffffffffffffffffffffffffffffff1673ffffffffffffffffffffffffffffffffffffffff16815260200190815260200160002060008381526020019081526020016000206000905550505050565b6000600160fe805490506128399190613904565b9050600060ff6000848152602001908152602001600020549050600060fe838154811061288f577f4e487b7100000000000000000000000000000000000000000000000000000000600052603260045260246000fd5b906000526020600020015490508060fe83815481106128d7577f4e487b7100000000000000000000000000000000000000000000000000000000600052603260045260246000fd5b90600052602060002001819055508160ff60008381526020019081526020016000208190555060ff60008581526020019081526020016000206000905560fe80548061294c577f4e487b7100000000000000000000000000000000000000000000000000000000600052603160045260246000fd5b6001900381819060005260206000200160009055905550505050565b600061297383610c34565b90508160fc60008573ffffffffffffffffffffffffffffffffffffffff1673ffffffffffffffffffffffffffffffffffffffff1681526020019081526020016000206000838152602001908152602001600020819055508060fd600084815260200190815260200160002081905550505050565b6040518060400160405280600063ffffffff168152602001606081525090565b828054612a1390613a1d565b90600052602060002090601f016020900481019282612a355760008555612a7c565b82601f10612a4e57805160ff1916838001178555612a7c565b82800160010185558215612a7c579182015b82811115612a7b578251825591602001919060010190612a60565b5b509050612a899190612a8d565b5090565b5b80821115612aa6576000816000905550600101612a8e565b5090565b6000612abd612ab88461378e565b613769565b905082815260208101848484011115612ad557600080fd5b612ae08482856139db565b509392505050565b6000612afb612af6846137bf565b613769565b905082815260208101848484011115612b1357600080fd5b612b1e8482856139db565b509392505050565b600081359050612b35816141f9565b92915050565b600081359050612b4a81614210565b92915050565b600081359050612b5f81614227565b92915050565b600081519050612b7481614227565b92915050565b600082601f830112612b8b57600080fd5b8135612b9b848260208601612aaa565b91505092915050565b600082601f830112612bb557600080fd5b8135612bc5848260208601612ae8565b91505092915050565b600081359050612bdd8161423e565b92915050565b600060208284031215612bf557600080fd5b6000612c0384828501612b26565b91505092915050565b60008060408385031215612c1f57600080fd5b6000612c2d85828601612b26565b9250506020612c3e85828601612b26565b9150509250929050565b600080600060608486031215612c5d57600080fd5b6000612c6b86828701612b26565b9350506020612c7c86828701612b26565b9250506040612c8d86828701612bce565b9150509250925092565b60008060008060808587031215612cad57600080fd5b6000612cbb87828801612b26565b9450506020612ccc87828801612b26565b9350506040612cdd87828801612bce565b925050606085013567ffffffffffffffff811115612cfa57600080fd5b612d0687828801612b7a565b91505092959194509250565b60008060408385031215612d2557600080fd5b6000612d3385828601612b26565b9250506020612d4485828601612b3b565b9150509250929050565b60008060408385031215612d6157600080fd5b6000612d6f85828601612b26565b925050602083013567ffffffffffffffff811115612d8c57600080fd5b612d9885828601612ba4565b9150509250929050565b60008060408385031215612db557600080fd5b6000612dc385828601612b26565b9250506020612dd485828601612bce565b9150509250929050565b600060208284031215612df057600080fd5b6000612dfe84828501612b50565b91505092915050565b600060208284031215612e1957600080fd5b6000612e2784828501612b65565b91505092915050565b600060208284031215612e4257600080fd5b600082013567ffffffffffffffff811115612e5c57600080fd5b612e6884828501612ba4565b91505092915050565b600060208284031215612e8357600080fd5b6000612e9184828501612bce565b91505092915050565b6000612ea6838361332e565b905092915050565b612eb781613938565b82525050565b6000612ec882613800565b612ed2818561382e565b935083602082028501612ee4856137f0565b8060005b85811015612f205784840389528151612f018582612e9a565b9450612f0c83613821565b925060208a01995050600181019050612ee8565b50829750879550505050505092915050565b612f3b8161394a565b82525050565b6000612f4c8261380b565b612f56818561383f565b9350612f668185602086016139ea565b612f6f81613bb6565b840191505092915050565b612f83816139c9565b82525050565b6000612f9482613816565b612f9e8185613850565b9350612fae8185602086016139ea565b612fb781613bb6565b840191505092915050565b6000612fcd82613816565b612fd78185613861565b9350612fe78185602086016139ea565b612ff081613bb6565b840191505092915050565b600061300682613816565b6130108185613872565b93506130208185602086016139ea565b80840191505092915050565b6000613039602b83613861565b915061304482613bc7565b604082019050919050565b600061305c603283613861565b915061306782613c16565b604082019050919050565b600061307f602683613861565b915061308a82613c65565b604082019050919050565b60006130a2602583613861565b91506130ad82613cb4565b604082019050919050565b60006130c5601c83613861565b91506130d082613d03565b602082019050919050565b60006130e8602483613861565b91506130f382613d2c565b604082019050919050565b600061310b601983613861565b915061311682613d7b565b602082019050919050565b600061312e602c83613861565b915061313982613da4565b604082019050919050565b6000613151603883613861565b915061315c82613df3565b604082019050919050565b6000613174602a83613861565b915061317f82613e42565b604082019050919050565b6000613197602983613861565b91506131a282613e91565b604082019050919050565b60006131ba602e83613861565b91506131c582613ee0565b604082019050919050565b60006131dd602e83613861565b91506131e882613f2f565b604082019050919050565b6000613200602083613861565b915061320b82613f7e565b602082019050919050565b6000613223603183613861565b915061322e82613fa7565b604082019050919050565b6000613246602c83613861565b915061325182613ff6565b604082019050919050565b6000613269602083613861565b915061327482614045565b602082019050919050565b600061328c602f83613861565b91506132978261406e565b604082019050919050565b60006132af602183613861565b91506132ba826140bd565b604082019050919050565b60006132d2603183613861565b91506132dd8261410c565b604082019050919050565b60006132f5602c83613861565b91506133008261415b565b604082019050919050565b6000613318602b83613861565b9150613323826141aa565b604082019050919050565b6000604083016000830151613346600086018261337a565b506020830151848203602086015261335e8282612f89565b9150508091505092915050565b613374816139a2565b82525050565b613383816139ac565b82525050565b60006133958285612ffb565b91506133a18284612ffb565b91508190509392505050565b60006020820190506133c26000830184612eae565b92915050565b60006080820190506133dd6000830187612eae565b6133ea6020830186612eae565b6133f7604083018561336b565b81810360608301526134098184612f41565b905095945050505050565b6000602082019050818103600083015261342e8184612ebd565b905092915050565b600060208201905061344b6000830184612f32565b92915050565b60006020820190506134666000830184612f7a565b92915050565b600060208201905081810360008301526134868184612fc2565b905092915050565b600060208201905081810360008301526134a78161302c565b9050919050565b600060208201905081810360008301526134c78161304f565b9050919050565b600060208201905081810360008301526134e781613072565b9050919050565b6000602082019050818103600083015261350781613095565b9050919050565b60006020820190508181036000830152613527816130b8565b9050919050565b60006020820190508181036000830152613547816130db565b9050919050565b60006020820190508181036000830152613567816130fe565b9050919050565b6000602082019050818103600083015261358781613121565b9050919050565b600060208201905081810360008301526135a781613144565b9050919050565b600060208201905081810360008301526135c781613167565b9050919050565b600060208201905081810360008301526135e78161318a565b9050919050565b60006020820190508181036000830152613607816131ad565b9050919050565b60006020820190508181036000830152613627816131d0565b9050919050565b60006020820190508181036000830152613647816131f3565b9050919050565b6000602082019050818103600083015261366781613216565b9050919050565b6000602082019050818103600083015261368781613239565b9050919050565b600060208201905081810360008301526136a78161325c565b9050919050565b600060208201905081810360008301526136c78161327f565b9050919050565b600060208201905081810360008301526136e7816132a2565b9050919050565b60006020820190508181036000830152613707816132c5565b9050919050565b60006020820190508181036000830152613727816132e8565b9050919050565b600060208201905081810360008301526137478161330b565b9050919050565b6000602082019050613763600083018461336b565b92915050565b6000613773613784565b905061377f8282613a4f565b919050565b6000604051905090565b600067ffffffffffffffff8211156137a9576137a8613b87565b5b6137b282613bb6565b9050602081019050919050565b600067ffffffffffffffff8211156137da576137d9613b87565b5b6137e382613bb6565b9050602081019050919050565b6000819050602082019050919050565b600081519050919050565b600081519050919050565b600081519050919050565b6000602082019050919050565b600082825260208201905092915050565b600082825260208201905092915050565b600082825260208201905092915050565b600082825260208201905092915050565b600081905092915050565b6000613888826139a2565b9150613893836139a2565b9250827fffffffffffffffffffffffffffffffffffffffffffffffffffffffffffffffff038211156138c8576138c7613afa565b5b828201905092915050565b60006138de826139a2565b91506138e9836139a2565b9250826138f9576138f8613b29565b5b828204905092915050565b600061390f826139a2565b915061391a836139a2565b92508282101561392d5761392c613afa565b5b828203905092915050565b600061394382613982565b9050919050565b60008115159050919050565b60007fffffffff0000000000000000000000000000000000000000000000000000000082169050919050565b600073ffffffffffffffffffffffffffffffffffffffff82169050919050565b6000819050919050565b600063ffffffff82169050919050565b600060ff82169050919050565b60006139d4826139bc565b9050919050565b82818337600083830152505050565b60005b83811015613a085780820151818401526020810190506139ed565b83811115613a17576000848401525b50505050565b60006002820490506001821680613a3557607f821691505b60208210811415613a4957613a48613b58565b5b50919050565b613a5882613bb6565b810181811067ffffffffffffffff82111715613a7757613a76613b87565b5b80604052505050565b6000613a8b826139a2565b91507fffffffffffffffffffffffffffffffffffffffffffffffffffffffffffffffff821415613abe57613abd613afa565b5b600182019050919050565b6000613ad4826139a2565b9150613adf836139a2565b925082613aef57613aee613b29565b5b828206905092915050565b7f4e487b7100000000000000000000000000000000000000000000000000000000600052601160045260246000fd5b7f4e487b7100000000000000000000000000000000000000000000000000000000600052601260045260246000fd5b7f4e487b7100000000000000000000000000000000000000000000000000000000600052602260045260246000fd5b7f4e487b7100000000000000000000000000000000000000000000000000000000600052604160045260246000fd5b6000601f19601f8301169050919050565b7f455243373231456e756d657261626c653a206f776e657220696e646578206f7560008201527f74206f6620626f756e6473000000000000000000000000000000000000000000602082015250565b7f4552433732313a207472616e7366657220746f206e6f6e20455243373231526560008201527f63656976657220696d706c656d656e7465720000000000000000000000000000602082015250565b7f4f776e61626c653a206e6577206f776e657220697320746865207a65726f206160008201527f6464726573730000000000000000000000000000000000000000000000000000602082015250565b7f4552433732313a207472616e736665722066726f6d20696e636f72726563742060008201527f6f776e6572000000000000000000000000000000000000000000000000000000602082015250565b7f4552433732313a20746f6b656e20616c7265616479206d696e74656400000000600082015250565b7f4552433732313a207472616e7366657220746f20746865207a65726f2061646460008201527f7265737300000000000000000000000000000000000000000000000000000000602082015250565b7f4552433732313a20617070726f766520746f2063616c6c657200000000000000600082015250565b7f4552433732313a206f70657261746f7220717565727920666f72206e6f6e657860008201527f697374656e7420746f6b656e0000000000000000000000000000000000000000602082015250565b7f4552433732313a20617070726f76652063616c6c6572206973206e6f74206f7760008201527f6e6572206e6f7220617070726f76656420666f7220616c6c0000000000000000602082015250565b7f4552433732313a2062616c616e636520717565727920666f7220746865207a6560008201527f726f206164647265737300000000000000000000000000000000000000000000602082015250565b7f4552433732313a206f776e657220717565727920666f72206e6f6e657869737460008201527f656e7420746f6b656e0000000000000000000000000000000000000000000000602082015250565b7f45524337323155524953746f726167653a2055524920736574206f66206e6f6e60008201527f6578697374656e7420746f6b656e000000000000000000000000000000000000602082015250565b7f496e697469616c697a61626c653a20636f6e747261637420697320616c72656160008201527f647920696e697469616c697a6564000000000000000000000000000000000000602082015250565b7f4552433732313a206d696e7420746f20746865207a65726f2061646472657373600082015250565b7f45524337323155524953746f726167653a2055524920717565727920666f722060008201527f6e6f6e6578697374656e7420746f6b656e000000000000000000000000000000602082015250565b7f4552433732313a20617070726f76656420717565727920666f72206e6f6e657860008201527f697374656e7420746f6b656e0000000000000000000000000000000000000000602082015250565b7f4f776e61626c653a2063616c6c6572206973206e6f7420746865206f776e6572600082015250565b7f4552433732314d657461646174613a2055524920717565727920666f72206e6f60008201527f6e6578697374656e7420746f6b656e0000000000000000000000000000000000602082015250565b7f4552433732313a20617070726f76616c20746f2063757272656e74206f776e6560008201527f7200000000000000000000000000000000000000000000000000000000000000602082015250565b7f4552433732313a207472616e736665722063616c6c6572206973206e6f74206f60008201527f776e6572206e6f7220617070726f766564000000000000000000000000000000602082015250565b7f455243373231456e756d657261626c653a20676c6f62616c20696e646578206f60008201527f7574206f6620626f756e64730000000000000000000000000000000000000000602082015250565b7f496e697469616c697a61626c653a20636f6e7472616374206973206e6f74206960008201527f6e697469616c697a696e67000000000000000000000000000000000000000000602082015250565b61420281613938565b811461420d57600080fd5b50565b6142198161394a565b811461422457600080fd5b50565b61423081613956565b811461423b57600080fd5b50565b614247816139a2565b811461425257600080fd5b5056fea26469706673582212206fe336a981198be10f18759a36492f82922a3aeac2dab930a11d300cfbaaed0664736f6c63430008020033",
  "linkReferences": {},
  "deployedLinkReferences": {}
}