{
  "_format": "hh-sol-artifact-1",
  "contractName": "RachelV2",
  "sourceName": "contracts/RachelV2.sol",
  "abi": [
    {
      "anonymous": false,
      "inputs": [
        {
          "indexed": true,
          "internalType": "address",
          "name": "owner",
          "type": "address"
        },
        {
          "indexed": true,
          "internalType": "address",
          "name": "approved",
          "type": "address"
        },
        {
          "indexed": true,
          "internalType": "uint256",
          "name": "tokenId",
          "type": "uint256"
        }
      ],
      "name": "Approval",
      "type": "event"
    },
    {
      "anonymous": false,
      "inputs": [
        {
          "indexed": true,
          "internalType": "address",
          "name": "owner",
          "type": "address"
        },
        {
          "indexed": true,
          "internalType": "address",
          "name": "operator",
          "type": "address"
        },
        {
          "indexed": false,
          "internalType": "bool",
          "name": "approved",
          "type": "bool"
        }
      ],
      "name": "ApprovalForAll",
      "type": "event"
    },
    {
      "anonymous": false,
      "inputs": [
        {
          "indexed": false,
          "internalType": "uint8",
          "name": "version",
          "type": "uint8"
        }
      ],
      "name": "Initialized",
      "type": "event"
    },
    {
      "anonymous": false,
      "inputs": [
        {
          "indexed": true,
          "internalType": "address",
          "name": "previousOwner",
          "type": "address"
        },
        {
          "indexed": true,
          "internalType": "address",
          "name": "newOwner",
          "type": "address"
        }
      ],
      "name": "OwnershipTransferred",
      "type": "event"
    },
    {
      "anonymous": false,
      "inputs": [
        {
          "indexed": true,
          "internalType": "address",
          "name": "from",
          "type": "address"
        },
        {
          "indexed": true,
          "internalType": "address",
          "name": "to",
          "type": "address"
        },
        {
          "indexed": true,
          "internalType": "uint256",
          "name": "tokenId",
          "type": "uint256"
        }
      ],
      "name": "Transfer",
      "type": "event"
    },
    {
      "inputs": [
        {
          "internalType": "address",
          "name": "to",
          "type": "address"
        },
        {
          "internalType": "uint256",
          "name": "tokenId",
          "type": "uint256"
        }
      ],
      "name": "approve",
      "outputs": [],
      "stateMutability": "nonpayable",
      "type": "function"
    },
    {
      "inputs": [
        {
          "internalType": "address",
          "name": "owner",
          "type": "address"
        }
      ],
      "name": "balanceOf",
      "outputs": [
        {
          "internalType": "uint256",
          "name": "",
          "type": "uint256"
        }
      ],
      "stateMutability": "view",
      "type": "function"
    },
    {
      "inputs": [
        {
          "internalType": "uint256",
          "name": "tokenId",
          "type": "uint256"
        }
      ],
      "name": "getApproved",
      "outputs": [
        {
          "internalType": "address",
          "name": "",
          "type": "address"
        }
      ],
      "stateMutability": "view",
      "type": "function"
    },
    {
      "inputs": [],
      "name": "getMyNFTs",
      "outputs": [
        {
          "components": [
            {
              "internalType": "uint32",
              "name": "token",
              "type": "uint32"
            },
            {
              "internalType": "string",
              "name": "uri",
              "type": "string"
            }
          ],
          "internalType": "struct RachelV2.NFT[]",
          "name": "",
          "type": "tuple[]"
        }
      ],
      "stateMutability": "view",
      "type": "function"
    },
    {
      "inputs": [],
      "name": "initialize",
      "outputs": [],
      "stateMutability": "nonpayable",
      "type": "function"
    },
    {
      "inputs": [],
      "name": "initializeV2",
      "outputs": [],
      "stateMutability": "nonpayable",
      "type": "function"
    },
    {
      "inputs": [
        {
          "internalType": "address",
          "name": "owner",
          "type": "address"
        },
        {
          "internalType": "address",
          "name": "operator",
          "type": "address"
        }
      ],
      "name": "isApprovedForAll",
      "outputs": [
        {
          "internalType": "bool",
          "name": "",
          "type": "bool"
        }
      ],
      "stateMutability": "view",
      "type": "function"
    },
    {
      "inputs": [
        {
          "internalType": "address",
          "name": "recipient",
          "type": "address"
        },
        {
          "internalType": "string",
          "name": "tokenURI",
          "type": "string"
        }
      ],
      "name": "mintNFT",
      "outputs": [
        {
          "internalType": "uint256",
          "name": "",
          "type": "uint256"
        }
      ],
      "stateMutability": "nonpayable",
      "type": "function"
    },
    {
      "inputs": [
        {
          "internalType": "string",
          "name": "uri",
          "type": "string"
        }
      ],
      "name": "mintNFTFromUser",
      "outputs": [],
      "stateMutability": "nonpayable",
      "type": "function"
    },
    {
      "inputs": [],
      "name": "name",
      "outputs": [
        {
          "internalType": "string",
          "name": "",
          "type": "string"
        }
      ],
      "stateMutability": "view",
      "type": "function"
    },
    {
      "inputs": [],
      "name": "owner",
      "outputs": [
        {
          "internalType": "address",
          "name": "",
          "type": "address"
        }
      ],
      "stateMutability": "view",
      "type": "function"
    },
    {
      "inputs": [
        {
          "internalType": "uint256",
          "name": "tokenId",
          "type": "uint256"
        }
      ],
      "name": "ownerOf",
      "outputs": [
        {
          "internalType": "address",
          "name": "",
          "type": "address"
        }
      ],
      "stateMutability": "view",
      "type": "function"
    },
    {
      "inputs": [],
      "name": "renounceOwnership",
      "outputs": [],
      "stateMutability": "nonpayable",
      "type": "function"
    },
    {
      "inputs": [
        {
          "internalType": "address",
          "name": "from",
          "type": "address"
        },
        {
          "internalType": "address",
          "name": "to",
          "type": "address"
        },
        {
          "internalType": "uint256",
          "name": "tokenId",
          "type": "uint256"
        }
      ],
      "name": "safeTransferFrom",
      "outputs": [],
      "stateMutability": "nonpayable",
      "type": "function"
    },
    {
      "inputs": [
        {
          "internalType": "address",
          "name": "from",
          "type": "address"
        },
        {
          "internalType": "address",
          "name": "to",
          "type": "address"
        },
        {
          "internalType": "uint256",
          "name": "tokenId",
          "type": "uint256"
        },
        {
          "internalType": "bytes",
          "name": "_data",
          "type": "bytes"
        }
      ],
      "name": "safeTransferFrom",
      "outputs": [],
      "stateMutability": "nonpayable",
      "type": "function"
    },
    {
      "inputs": [
        {
          "internalType": "address",
          "name": "to",
          "type": "address"
        },
        {
          "internalType": "uint256",
          "name": "tokenId",
          "type": "uint256"
        }
      ],
      "name": "sendMyNFT",
      "outputs": [
        {
          "internalType": "bool",
          "name": "",
          "type": "bool"
        }
      ],
      "stateMutability": "nonpayable",
      "type": "function"
    },
    {
      "inputs": [
        {
          "internalType": "address",
          "name": "operator",
          "type": "address"
        },
        {
          "internalType": "bool",
          "name": "approved",
          "type": "bool"
        }
      ],
      "name": "setApprovalForAll",
      "outputs": [],
      "stateMutability": "nonpayable",
      "type": "function"
    },
    {
      "inputs": [
        {
          "internalType": "bytes4",
          "name": "interfaceId",
          "type": "bytes4"
        }
      ],
      "name": "supportsInterface",
      "outputs": [
        {
          "internalType": "bool",
          "name": "",
          "type": "bool"
        }
      ],
      "stateMutability": "view",
      "type": "function"
    },
    {
      "inputs": [],
      "name": "symbol",
      "outputs": [
        {
          "internalType": "string",
          "name": "",
          "type": "string"
        }
      ],
      "stateMutability": "view",
      "type": "function"
    },
    {
      "inputs": [
        {
          "internalType": "uint256",
          "name": "index",
          "type": "uint256"
        }
      ],
      "name": "tokenByIndex",
      "outputs": [
        {
          "internalType": "uint256",
          "name": "",
          "type": "uint256"
        }
      ],
      "stateMutability": "view",
      "type": "function"
    },
    {
      "inputs": [
        {
          "internalType": "address",
          "name": "owner",
          "type": "address"
        },
        {
          "internalType": "uint256",
          "name": "index",
          "type": "uint256"
        }
      ],
      "name": "tokenOfOwnerByIndex",
      "outputs": [
        {
          "internalType": "uint256",
          "name": "",
          "type": "uint256"
        }
      ],
      "stateMutability": "view",
      "type": "function"
    },
    {
      "inputs": [
        {
          "internalType": "uint256",
          "name": "tokenId",
          "type": "uint256"
        }
      ],
      "name": "tokenURI",
      "outputs": [
        {
          "internalType": "string",
          "name": "",
          "type": "string"
        }
      ],
      "stateMutability": "view",
      "type": "function"
    },
    {
      "inputs": [],
      "name": "totalSupply",
      "outputs": [
        {
          "internalType": "uint256",
          "name": "",
          "type": "uint256"
        }
      ],
      "stateMutability": "view",
      "type": "function"
    },
    {
      "inputs": [
        {
          "internalType": "address",
          "name": "from",
          "type": "address"
        },
        {
          "internalType": "address",
          "name": "to",
          "type": "address"
        },
        {
          "internalType": "uint256",
          "name": "tokenId",
          "type": "uint256"
        }
      ],
      "name": "transferFrom",
      "outputs": [],
      "stateMutability": "nonpayable",
      "type": "function"
    },
    {
      "inputs": [
        {
          "internalType": "address",
          "name": "newOwner",
          "type": "address"
        }
      ],
      "name": "transferOwnership",
      "outputs": [],
      "stateMutability": "nonpayable",
      "type": "function"
    }
  ],
  "bytecode": "0x608060405234801561001057600080fd5b50614241806100206000396000f3fe608060405234801561001057600080fd5b50600436106101735760003560e01c80636352211e116100de57806395d89b4111610097578063c87b56dd11610071578063c87b56dd14610424578063e985e9c514610454578063eacabe1414610484578063f2fde38b146104b457610173565b806395d89b41146103ce578063a22cb465146103ec578063b88d4fde1461040857610173565b80636352211e1461032057806370a0823114610350578063715018a6146103805780638129fc1c1461038a5780638c32d72b146103945780638da5cb5b146103b057610173565b80632f745c59116101305780632f745c591461024c57806342842e0e1461027c5780634f6ccce71461029857806350b0b2d3146102c85780635cd8a76b146102f8578063629cb2e41461030257610173565b806301ffc9a71461017857806306fdde03146101a8578063081812fc146101c6578063095ea7b3146101f657806318160ddd1461021257806323b872dd14610230575b600080fd5b610192600480360381019061018d9190612d94565b6104d0565b60405161019f91906133ec565b60405180910390f35b6101b06104e2565b6040516101bd9190613422565b60405180910390f35b6101e060048036038101906101db9190612e27565b610574565b6040516101ed9190613363565b60405180910390f35b610210600480360381019061020b9190612d58565b6105f9565b005b61021a610711565b6040516102279190613704565b60405180910390f35b61024a60048036038101906102459190612bfe565b61071e565b005b61026660048036038101906102619190612d58565b61077e565b6040516102739190613704565b60405180910390f35b61029660048036038101906102919190612bfe565b610823565b005b6102b260048036038101906102ad9190612e27565b610843565b6040516102bf9190613704565b60405180910390f35b6102e260048036038101906102dd9190612d58565b6108da565b6040516102ef91906133ec565b60405180910390f35b6103006108fb565b005b61030a6109c6565b60405161031791906133ca565b60405180910390f35b61033a60048036038101906103359190612e27565b610b38565b6040516103479190613363565b60405180910390f35b61036a60048036038101906103659190612b99565b610bea565b6040516103779190613704565b60405180910390f35b610388610ca2565b005b610392610d2a565b005b6103ae60048036038101906103a99190612de6565b610e32565b005b6103b8610e62565b6040516103c59190613363565b60405180910390f35b6103d6610e8c565b6040516103e39190613422565b60405180910390f35b61040660048036038101906104019190612cc8565b610f1e565b005b610422600480360381019061041d9190612c4d565b610f34565b005b61043e60048036038101906104399190612e27565b610f96565b60405161044b9190613422565b60405180910390f35b61046e60048036038101906104699190612bc2565b610fa8565b60405161047b91906133ec565b60405180910390f35b61049e60048036038101906104999190612d04565b61103c565b6040516104ab9190613704565b60405180910390f35b6104ce60048036038101906104c99190612b99565b6110f0565b005b60006104db826111e8565b9050919050565b6060606580546104f1906139d3565b80601f016020809104026020016040519081016040528092919081815260200182805461051d906139d3565b801561056a5780601f1061053f5761010080835404028352916020019161056a565b820191906000526020600020905b81548152906001019060200180831161054d57829003601f168201915b5050505050905090565b600061057f826112ca565b6105be576040517f08c379a00000000000000000000000000000000000000000000000000000000081526004016105b590613624565b60405180910390fd5b6069600083815260200190815260200160002060009054906101000a900473ffffffffffffffffffffffffffffffffffffffff169050919050565b600061060482610b38565b90508073ffffffffffffffffffffffffffffffffffffffff168373ffffffffffffffffffffffffffffffffffffffff161415610675576040517f08c379a000000000000000000000000000000000000000000000000000000000815260040161066c90613684565b60405180910390fd5b8073ffffffffffffffffffffffffffffffffffffffff16610694611336565b73ffffffffffffffffffffffffffffffffffffffff1614806106c357506106c2816106bd611336565b610fa8565b5b610702576040517f08c379a00000000000000000000000000000000000000000000000000000000081526004016106f990613544565b60405180910390fd5b61070c838361133e565b505050565b600060fe80549050905090565b61072f610729611336565b826113f7565b61076e576040517f08c379a0000000000000000000000000000000000000000000000000000000008152600401610765906136a4565b60405180910390fd5b6107798383836114d5565b505050565b600061078983610bea565b82106107ca576040517f08c379a00000000000000000000000000000000000000000000000000000000081526004016107c190613444565b60405180910390fd5b60fc60008473ffffffffffffffffffffffffffffffffffffffff1673ffffffffffffffffffffffffffffffffffffffff168152602001908152602001600020600083815260200190815260200160002054905092915050565b61083e83838360405180602001604052806000815250610f34565b505050565b600061084d610711565b821061088e576040517f08c379a0000000000000000000000000000000000000000000000000000000008152600401610885906136c4565b60405180910390fd5b60fe82815481106108c8577f4e487b7100000000000000000000000000000000000000000000000000000000600052603260045260246000fd5b90600052602060002001549050919050565b60006108e683836105f9565b6108f1338484610823565b6001905092915050565b6000610907600161173c565b9050801561092b576001600060016101000a81548160ff0219169083151502179055505b61012e60009054906101000a900460ff161561094657600080fd5b600161012e60006101000a81548160ff02191690831515021790555061096a61182c565b80156109c35760008060016101000a81548160ff0219169083151502179055507f7f26b83ff96e1f2b6a682f133852f6798a09c465da95921460cefb384740249860016040516109ba9190613407565b60405180910390a15b50565b6060600033905060006109d882610bea565b905060008167ffffffffffffffff811115610a1c577f4e487b7100000000000000000000000000000000000000000000000000000000600052604160045260246000fd5b604051908082528060200260200182016040528015610a5557816020015b610a4261299d565b815260200190600190039081610a3a5790505b50905060005b82811015610b2e576000610a6f858361077e565b9050610a7a81610f96565b838381518110610ab3577f4e487b7100000000000000000000000000000000000000000000000000000000600052603260045260246000fd5b60200260200101516020018190525080838381518110610afc577f4e487b7100000000000000000000000000000000000000000000000000000000600052603260045260246000fd5b60200260200101516000019063ffffffff16908163ffffffff1681525050508080610b2690613a36565b915050610a5b565b5080935050505090565b6000806067600084815260200190815260200160002060009054906101000a900473ffffffffffffffffffffffffffffffffffffffff169050600073ffffffffffffffffffffffffffffffffffffffff168173ffffffffffffffffffffffffffffffffffffffff161415610be1576040517f08c379a0000000000000000000000000000000000000000000000000000000008152600401610bd890613584565b60405180910390fd5b80915050919050565b60008073ffffffffffffffffffffffffffffffffffffffff168273ffffffffffffffffffffffffffffffffffffffff161415610c5b576040517f08c379a0000000000000000000000000000000000000000000000000000000008152600401610c5290613564565b60405180910390fd5b606860008373ffffffffffffffffffffffffffffffffffffffff1673ffffffffffffffffffffffffffffffffffffffff168152602001908152602001600020549050919050565b610caa611336565b73ffffffffffffffffffffffffffffffffffffffff16610cc8610e62565b73ffffffffffffffffffffffffffffffffffffffff1614610d1e576040517f08c379a0000000000000000000000000000000000000000000000000000000008152600401610d1590613644565b60405180910390fd5b610d28600061187d565b565b6000610d36600161173c565b90508015610d5a576001600060016101000a81548160ff0219169083151502179055505b610dce6040518060400160405280600681526020017f52616368656c00000000000000000000000000000000000000000000000000008152506040518060400160405280600381526020017f5245490000000000000000000000000000000000000000000000000000000000815250611943565b610dd66119a0565b8015610e2f5760008060016101000a81548160ff0219169083151502179055507f7f26b83ff96e1f2b6a682f133852f6798a09c465da95921460cefb38474024986001604051610e269190613407565b60405180910390a15b50565b610e3c60fb6119f9565b6000610e4860fb611a0f565b9050610e543382611a1d565b610e5e8183611bf7565b5050565b600060c960009054906101000a900473ffffffffffffffffffffffffffffffffffffffff16905090565b606060668054610e9b906139d3565b80601f0160208091040260200160405190810160405280929190818152602001828054610ec7906139d3565b8015610f145780601f10610ee957610100808354040283529160200191610f14565b820191906000526020600020905b815481529060010190602001808311610ef757829003601f168201915b5050505050905090565b610f30610f29611336565b8383611c6b565b5050565b610f45610f3f611336565b836113f7565b610f84576040517f08c379a0000000000000000000000000000000000000000000000000000000008152600401610f7b906136a4565b60405180910390fd5b610f9084848484611dd8565b50505050565b6060610fa182611e34565b9050919050565b6000606a60008473ffffffffffffffffffffffffffffffffffffffff1673ffffffffffffffffffffffffffffffffffffffff16815260200190815260200160002060008373ffffffffffffffffffffffffffffffffffffffff1673ffffffffffffffffffffffffffffffffffffffff16815260200190815260200160002060009054906101000a900460ff16905092915050565b6000611046611336565b73ffffffffffffffffffffffffffffffffffffffff16611064610e62565b73ffffffffffffffffffffffffffffffffffffffff16146110ba576040517f08c379a00000000000000000000000000000000000000000000000000000000081526004016110b190613644565b60405180910390fd5b6110c460fb6119f9565b60006110d060fb611a0f565b90506110dc8482611a1d565b6110e68184611bf7565b8091505092915050565b6110f8611336565b73ffffffffffffffffffffffffffffffffffffffff16611116610e62565b73ffffffffffffffffffffffffffffffffffffffff161461116c576040517f08c379a000000000000000000000000000000000000000000000000000000000815260040161116390613644565b60405180910390fd5b600073ffffffffffffffffffffffffffffffffffffffff168173ffffffffffffffffffffffffffffffffffffffff1614156111dc576040517f08c379a00000000000000000000000000000000000000000000000000000000081526004016111d390613484565b60405180910390fd5b6111e58161187d565b50565b60007f80ac58cd000000000000000000000000000000000000000000000000000000007bffffffffffffffffffffffffffffffffffffffffffffffffffffffff1916827bffffffffffffffffffffffffffffffffffffffffffffffffffffffff191614806112b357507f5b5e139f000000000000000000000000000000000000000000000000000000007bffffffffffffffffffffffffffffffffffffffffffffffffffffffff1916827bffffffffffffffffffffffffffffffffffffffffffffffffffffffff1916145b806112c357506112c282611f86565b5b9050919050565b60008073ffffffffffffffffffffffffffffffffffffffff166067600084815260200190815260200160002060009054906101000a900473ffffffffffffffffffffffffffffffffffffffff1673ffffffffffffffffffffffffffffffffffffffff1614159050919050565b600033905090565b816069600083815260200190815260200160002060006101000a81548173ffffffffffffffffffffffffffffffffffffffff021916908373ffffffffffffffffffffffffffffffffffffffff160217905550808273ffffffffffffffffffffffffffffffffffffffff166113b183610b38565b73ffffffffffffffffffffffffffffffffffffffff167f8c5be1e5ebec7d5bd14f71427d1e84f3dd0314c0f7b2291e5b200ac8c7c3b92560405160405180910390a45050565b6000611402826112ca565b611441576040517f08c379a000000000000000000000000000000000000000000000000000000000815260040161143890613524565b60405180910390fd5b600061144c83610b38565b90508073ffffffffffffffffffffffffffffffffffffffff168473ffffffffffffffffffffffffffffffffffffffff16148061148e575061148d8185610fa8565b5b806114cc57508373ffffffffffffffffffffffffffffffffffffffff166114b484610574565b73ffffffffffffffffffffffffffffffffffffffff16145b91505092915050565b8273ffffffffffffffffffffffffffffffffffffffff166114f582610b38565b73ffffffffffffffffffffffffffffffffffffffff161461154b576040517f08c379a0000000000000000000000000000000000000000000000000000000008152600401611542906134a4565b60405180910390fd5b600073ffffffffffffffffffffffffffffffffffffffff168273ffffffffffffffffffffffffffffffffffffffff1614156115bb576040517f08c379a00000000000000000000000000000000000000000000000000000000081526004016115b2906134e4565b60405180910390fd5b6115c6838383611ff0565b6115d160008261133e565b6001606860008573ffffffffffffffffffffffffffffffffffffffff1673ffffffffffffffffffffffffffffffffffffffff168152602001908152602001600020600082825461162191906138ba565b925050819055506001606860008473ffffffffffffffffffffffffffffffffffffffff1673ffffffffffffffffffffffffffffffffffffffff16815260200190815260200160002060008282546116789190613833565b92505081905550816067600083815260200190815260200160002060006101000a81548173ffffffffffffffffffffffffffffffffffffffff021916908373ffffffffffffffffffffffffffffffffffffffff160217905550808273ffffffffffffffffffffffffffffffffffffffff168473ffffffffffffffffffffffffffffffffffffffff167fddf252ad1be2c89b69c2b068fc378daa952ba7f163c4a11628f55a4df523b3ef60405160405180910390a4611737838383612000565b505050565b60008060019054906101000a900460ff16156117b35760018260ff1614801561176b575061176930612005565b155b6117aa576040517f08c379a00000000000000000000000000000000000000000000000000000000081526004016117a1906135c4565b60405180910390fd5b60009050611827565b8160ff1660008054906101000a900460ff1660ff1610611808576040517f08c379a00000000000000000000000000000000000000000000000000000000081526004016117ff906135c4565b60405180910390fd5b816000806101000a81548160ff021916908360ff160217905550600190505b919050565b600060019054906101000a900460ff1661187b576040517f08c379a0000000000000000000000000000000000000000000000000000000008152600401611872906136e4565b60405180910390fd5b565b600060c960009054906101000a900473ffffffffffffffffffffffffffffffffffffffff1690508160c960006101000a81548173ffffffffffffffffffffffffffffffffffffffff021916908373ffffffffffffffffffffffffffffffffffffffff1602179055508173ffffffffffffffffffffffffffffffffffffffff168173ffffffffffffffffffffffffffffffffffffffff167f8be0079c531659141344cd1fd0a4f28419497f9722a3daafe3b4186f6b6457e060405160405180910390a35050565b600060019054906101000a900460ff16611992576040517f08c379a0000000000000000000000000000000000000000000000000000000008152600401611989906136e4565b60405180910390fd5b61199c8282612028565b5050565b600060019054906101000a900460ff166119ef576040517f08c379a00000000000000000000000000000000000000000000000000000000081526004016119e6906136e4565b60405180910390fd5b6119f76120a9565b565b6001816000016000828254019250508190555050565b600081600001549050919050565b600073ffffffffffffffffffffffffffffffffffffffff168273ffffffffffffffffffffffffffffffffffffffff161415611a8d576040517f08c379a0000000000000000000000000000000000000000000000000000000008152600401611a84906135e4565b60405180910390fd5b611a96816112ca565b15611ad6576040517f08c379a0000000000000000000000000000000000000000000000000000000008152600401611acd906134c4565b60405180910390fd5b611ae260008383611ff0565b6001606860008473ffffffffffffffffffffffffffffffffffffffff1673ffffffffffffffffffffffffffffffffffffffff1681526020019081526020016000206000828254611b329190613833565b92505081905550816067600083815260200190815260200160002060006101000a81548173ffffffffffffffffffffffffffffffffffffffff021916908373ffffffffffffffffffffffffffffffffffffffff160217905550808273ffffffffffffffffffffffffffffffffffffffff16600073ffffffffffffffffffffffffffffffffffffffff167fddf252ad1be2c89b69c2b068fc378daa952ba7f163c4a11628f55a4df523b3ef60405160405180910390a4611bf360008383612000565b5050565b611c00826112ca565b611c3f576040517f08c379a0000000000000000000000000000000000000000000000000000000008152600401611c36906135a4565b60405180910390fd5b80609760008481526020019081526020016000209080519060200190611c669291906129bd565b505050565b8173ffffffffffffffffffffffffffffffffffffffff168373ffffffffffffffffffffffffffffffffffffffff161415611cda576040517f08c379a0000000000000000000000000000000000000000000000000000000008152600401611cd190613504565b60405180910390fd5b80606a60008573ffffffffffffffffffffffffffffffffffffffff1673ffffffffffffffffffffffffffffffffffffffff16815260200190815260200160002060008473ffffffffffffffffffffffffffffffffffffffff1673ffffffffffffffffffffffffffffffffffffffff16815260200190815260200160002060006101000a81548160ff0219169083151502179055508173ffffffffffffffffffffffffffffffffffffffff168373ffffffffffffffffffffffffffffffffffffffff167f17307eab39ab6107e8899845ad3d59bd9653f200f220920489ca2b5937696c3183604051611dcb91906133ec565b60405180910390a3505050565b611de38484846114d5565b611def8484848461210a565b611e2e576040517f08c379a0000000000000000000000000000000000000000000000000000000008152600401611e2590613464565b60405180910390fd5b50505050565b6060611e3f826112ca565b611e7e576040517f08c379a0000000000000000000000000000000000000000000000000000000008152600401611e7590613604565b60405180910390fd5b6000609760008481526020019081526020016000208054611e9e906139d3565b80601f0160208091040260200160405190810160405280929190818152602001828054611eca906139d3565b8015611f175780601f10611eec57610100808354040283529160200191611f17565b820191906000526020600020905b815481529060010190602001808311611efa57829003601f168201915b505050505090506000611f286122a1565b9050600081511415611f3e578192505050611f81565b600082511115611f73578082604051602001611f5b92919061333f565b60405160208183030381529060405292505050611f81565b611f7c846122b8565b925050505b919050565b60007f01ffc9a7000000000000000000000000000000000000000000000000000000007bffffffffffffffffffffffffffffffffffffffffffffffffffffffff1916827bffffffffffffffffffffffffffffffffffffffffffffffffffffffff1916149050919050565b611ffb83838361235f565b505050565b505050565b6000808273ffffffffffffffffffffffffffffffffffffffff163b119050919050565b600060019054906101000a900460ff16612077576040517f08c379a000000000000000000000000000000000000000000000000000000000815260040161206e906136e4565b60405180910390fd5b816065908051906020019061208d9291906129bd565b5080606690805190602001906120a49291906129bd565b505050565b600060019054906101000a900460ff166120f8576040517f08c379a00000000000000000000000000000000000000000000000000000000081526004016120ef906136e4565b60405180910390fd5b612108612103611336565b61187d565b565b600061212b8473ffffffffffffffffffffffffffffffffffffffff16612005565b15612294578373ffffffffffffffffffffffffffffffffffffffff1663150b7a02612154611336565b8786866040518563ffffffff1660e01b8152600401612176949392919061337e565b602060405180830381600087803b15801561219057600080fd5b505af19250505080156121c157506040513d601f19601f820116820180604052508101906121be9190612dbd565b60015b612244573d80600081146121f1576040519150601f19603f3d011682016040523d82523d6000602084013e6121f6565b606091505b5060008151141561223c576040517f08c379a000000000000000000000000000000000000000000000000000000000815260040161223390613464565b60405180910390fd5b805181602001fd5b63150b7a0260e01b7bffffffffffffffffffffffffffffffffffffffffffffffffffffffff1916817bffffffffffffffffffffffffffffffffffffffffffffffffffffffff191614915050612299565b600190505b949350505050565b606060405180602001604052806000815250905090565b60606122c3826112ca565b612302576040517f08c379a00000000000000000000000000000000000000000000000000000000081526004016122f990613664565b60405180910390fd5b600061230c6122a1565b9050600081511161232c5760405180602001604052806000815250612357565b8061233684612473565b60405160200161234792919061333f565b6040516020818303038152906040525b915050919050565b61236a838383612620565b600073ffffffffffffffffffffffffffffffffffffffff168373ffffffffffffffffffffffffffffffffffffffff1614156123ad576123a881612625565b6123ec565b8173ffffffffffffffffffffffffffffffffffffffff168373ffffffffffffffffffffffffffffffffffffffff16146123eb576123ea838261266e565b5b5b600073ffffffffffffffffffffffffffffffffffffffff168273ffffffffffffffffffffffffffffffffffffffff16141561242f5761242a816127db565b61246e565b8273ffffffffffffffffffffffffffffffffffffffff168273ffffffffffffffffffffffffffffffffffffffff161461246d5761246c828261291e565b5b5b505050565b606060008214156124bb576040518060400160405280600181526020017f3000000000000000000000000000000000000000000000000000000000000000815250905061261b565b600082905060005b600082146124ed5780806124d690613a36565b915050600a826124e69190613889565b91506124c3565b60008167ffffffffffffffff81111561252f577f4e487b7100000000000000000000000000000000000000000000000000000000600052604160045260246000fd5b6040519080825280601f01601f1916602001820160405280156125615781602001600182028036833780820191505090505b5090505b600085146126145760018261257a91906138ba565b9150600a856125899190613a7f565b60306125959190613833565b60f81b8183815181106125d1577f4e487b7100000000000000000000000000000000000000000000000000000000600052603260045260246000fd5b60200101907effffffffffffffffffffffffffffffffffffffffffffffffffffffffffffff1916908160001a905350600a8561260d9190613889565b9450612565565b8093505050505b919050565b505050565b60fe8054905060ff60008381526020019081526020016000208190555060fe81908060018154018082558091505060019003906000526020600020016000909190919091505550565b6000600161267b84610bea565b61268591906138ba565b9050600060fd600084815260200190815260200160002054905081811461276a57600060fc60008673ffffffffffffffffffffffffffffffffffffffff1673ffffffffffffffffffffffffffffffffffffffff16815260200190815260200160002060008481526020019081526020016000205490508060fc60008773ffffffffffffffffffffffffffffffffffffffff1673ffffffffffffffffffffffffffffffffffffffff1681526020019081526020016000206000848152602001908152602001600020819055508160fd600083815260200190815260200160002081905550505b60fd60008481526020019081526020016000206000905560fc60008573ffffffffffffffffffffffffffffffffffffffff1673ffffffffffffffffffffffffffffffffffffffff16815260200190815260200160002060008381526020019081526020016000206000905550505050565b6000600160fe805490506127ef91906138ba565b9050600060ff6000848152602001908152602001600020549050600060fe8381548110612845577f4e487b7100000000000000000000000000000000000000000000000000000000600052603260045260246000fd5b906000526020600020015490508060fe838154811061288d577f4e487b7100000000000000000000000000000000000000000000000000000000600052603260045260246000fd5b90600052602060002001819055508160ff60008381526020019081526020016000208190555060ff60008581526020019081526020016000206000905560fe805480612902577f4e487b7100000000000000000000000000000000000000000000000000000000600052603160045260246000fd5b6001900381819060005260206000200160009055905550505050565b600061292983610bea565b90508160fc60008573ffffffffffffffffffffffffffffffffffffffff1673ffffffffffffffffffffffffffffffffffffffff1681526020019081526020016000206000838152602001908152602001600020819055508060fd600084815260200190815260200160002081905550505050565b6040518060400160405280600063ffffffff168152602001606081525090565b8280546129c9906139d3565b90600052602060002090601f0160209004810192826129eb5760008555612a32565b82601f10612a0457805160ff1916838001178555612a32565b82800160010185558215612a32579182015b82811115612a31578251825591602001919060010190612a16565b5b509050612a3f9190612a43565b5090565b5b80821115612a5c576000816000905550600101612a44565b5090565b6000612a73612a6e84613744565b61371f565b905082815260208101848484011115612a8b57600080fd5b612a96848285613991565b509392505050565b6000612ab1612aac84613775565b61371f565b905082815260208101848484011115612ac957600080fd5b612ad4848285613991565b509392505050565b600081359050612aeb816141af565b92915050565b600081359050612b00816141c6565b92915050565b600081359050612b15816141dd565b92915050565b600081519050612b2a816141dd565b92915050565b600082601f830112612b4157600080fd5b8135612b51848260208601612a60565b91505092915050565b600082601f830112612b6b57600080fd5b8135612b7b848260208601612a9e565b91505092915050565b600081359050612b93816141f4565b92915050565b600060208284031215612bab57600080fd5b6000612bb984828501612adc565b91505092915050565b60008060408385031215612bd557600080fd5b6000612be385828601612adc565b9250506020612bf485828601612adc565b9150509250929050565b600080600060608486031215612c1357600080fd5b6000612c2186828701612adc565b9350506020612c3286828701612adc565b9250506040612c4386828701612b84565b9150509250925092565b60008060008060808587031215612c6357600080fd5b6000612c7187828801612adc565b9450506020612c8287828801612adc565b9350506040612c9387828801612b84565b925050606085013567ffffffffffffffff811115612cb057600080fd5b612cbc87828801612b30565b91505092959194509250565b60008060408385031215612cdb57600080fd5b6000612ce985828601612adc565b9250506020612cfa85828601612af1565b9150509250929050565b60008060408385031215612d1757600080fd5b6000612d2585828601612adc565b925050602083013567ffffffffffffffff811115612d4257600080fd5b612d4e85828601612b5a565b9150509250929050565b60008060408385031215612d6b57600080fd5b6000612d7985828601612adc565b9250506020612d8a85828601612b84565b9150509250929050565b600060208284031215612da657600080fd5b6000612db484828501612b06565b91505092915050565b600060208284031215612dcf57600080fd5b6000612ddd84828501612b1b565b91505092915050565b600060208284031215612df857600080fd5b600082013567ffffffffffffffff811115612e1257600080fd5b612e1e84828501612b5a565b91505092915050565b600060208284031215612e3957600080fd5b6000612e4784828501612b84565b91505092915050565b6000612e5c83836132e4565b905092915050565b612e6d816138ee565b82525050565b6000612e7e826137b6565b612e8881856137e4565b935083602082028501612e9a856137a6565b8060005b85811015612ed65784840389528151612eb78582612e50565b9450612ec2836137d7565b925060208a01995050600181019050612e9e565b50829750879550505050505092915050565b612ef181613900565b82525050565b6000612f02826137c1565b612f0c81856137f5565b9350612f1c8185602086016139a0565b612f2581613b6c565b840191505092915050565b612f398161397f565b82525050565b6000612f4a826137cc565b612f548185613806565b9350612f648185602086016139a0565b612f6d81613b6c565b840191505092915050565b6000612f83826137cc565b612f8d8185613817565b9350612f9d8185602086016139a0565b612fa681613b6c565b840191505092915050565b6000612fbc826137cc565b612fc68185613828565b9350612fd68185602086016139a0565b80840191505092915050565b6000612fef602b83613817565b9150612ffa82613b7d565b604082019050919050565b6000613012603283613817565b915061301d82613bcc565b604082019050919050565b6000613035602683613817565b915061304082613c1b565b604082019050919050565b6000613058602583613817565b915061306382613c6a565b604082019050919050565b600061307b601c83613817565b915061308682613cb9565b602082019050919050565b600061309e602483613817565b91506130a982613ce2565b604082019050919050565b60006130c1601983613817565b91506130cc82613d31565b602082019050919050565b60006130e4602c83613817565b91506130ef82613d5a565b604082019050919050565b6000613107603883613817565b915061311282613da9565b604082019050919050565b600061312a602a83613817565b915061313582613df8565b604082019050919050565b600061314d602983613817565b915061315882613e47565b604082019050919050565b6000613170602e83613817565b915061317b82613e96565b604082019050919050565b6000613193602e83613817565b915061319e82613ee5565b604082019050919050565b60006131b6602083613817565b91506131c182613f34565b602082019050919050565b60006131d9603183613817565b91506131e482613f5d565b604082019050919050565b60006131fc602c83613817565b915061320782613fac565b604082019050919050565b600061321f602083613817565b915061322a82613ffb565b602082019050919050565b6000613242602f83613817565b915061324d82614024565b604082019050919050565b6000613265602183613817565b915061327082614073565b604082019050919050565b6000613288603183613817565b9150613293826140c2565b604082019050919050565b60006132ab602c83613817565b91506132b682614111565b604082019050919050565b60006132ce602b83613817565b91506132d982614160565b604082019050919050565b60006040830160008301516132fc6000860182613330565b50602083015184820360208601526133148282612f3f565b9150508091505092915050565b61332a81613958565b82525050565b61333981613962565b82525050565b600061334b8285612fb1565b91506133578284612fb1565b91508190509392505050565b60006020820190506133786000830184612e64565b92915050565b60006080820190506133936000830187612e64565b6133a06020830186612e64565b6133ad6040830185613321565b81810360608301526133bf8184612ef7565b905095945050505050565b600060208201905081810360008301526133e48184612e73565b905092915050565b60006020820190506134016000830184612ee8565b92915050565b600060208201905061341c6000830184612f30565b92915050565b6000602082019050818103600083015261343c8184612f78565b905092915050565b6000602082019050818103600083015261345d81612fe2565b9050919050565b6000602082019050818103600083015261347d81613005565b9050919050565b6000602082019050818103600083015261349d81613028565b9050919050565b600060208201905081810360008301526134bd8161304b565b9050919050565b600060208201905081810360008301526134dd8161306e565b9050919050565b600060208201905081810360008301526134fd81613091565b9050919050565b6000602082019050818103600083015261351d816130b4565b9050919050565b6000602082019050818103600083015261353d816130d7565b9050919050565b6000602082019050818103600083015261355d816130fa565b9050919050565b6000602082019050818103600083015261357d8161311d565b9050919050565b6000602082019050818103600083015261359d81613140565b9050919050565b600060208201905081810360008301526135bd81613163565b9050919050565b600060208201905081810360008301526135dd81613186565b9050919050565b600060208201905081810360008301526135fd816131a9565b9050919050565b6000602082019050818103600083015261361d816131cc565b9050919050565b6000602082019050818103600083015261363d816131ef565b9050919050565b6000602082019050818103600083015261365d81613212565b9050919050565b6000602082019050818103600083015261367d81613235565b9050919050565b6000602082019050818103600083015261369d81613258565b9050919050565b600060208201905081810360008301526136bd8161327b565b9050919050565b600060208201905081810360008301526136dd8161329e565b9050919050565b600060208201905081810360008301526136fd816132c1565b9050919050565b60006020820190506137196000830184613321565b92915050565b600061372961373a565b90506137358282613a05565b919050565b6000604051905090565b600067ffffffffffffffff82111561375f5761375e613b3d565b5b61376882613b6c565b9050602081019050919050565b600067ffffffffffffffff8211156137905761378f613b3d565b5b61379982613b6c565b9050602081019050919050565b6000819050602082019050919050565b600081519050919050565b600081519050919050565b600081519050919050565b6000602082019050919050565b600082825260208201905092915050565b600082825260208201905092915050565b600082825260208201905092915050565b600082825260208201905092915050565b600081905092915050565b600061383e82613958565b915061384983613958565b9250827fffffffffffffffffffffffffffffffffffffffffffffffffffffffffffffffff0382111561387e5761387d613ab0565b5b828201905092915050565b600061389482613958565b915061389f83613958565b9250826138af576138ae613adf565b5b828204905092915050565b60006138c582613958565b91506138d083613958565b9250828210156138e3576138e2613ab0565b5b828203905092915050565b60006138f982613938565b9050919050565b60008115159050919050565b60007fffffffff0000000000000000000000000000000000000000000000000000000082169050919050565b600073ffffffffffffffffffffffffffffffffffffffff82169050919050565b6000819050919050565b600063ffffffff82169050919050565b600060ff82169050919050565b600061398a82613972565b9050919050565b82818337600083830152505050565b60005b838110156139be5780820151818401526020810190506139a3565b838111156139cd576000848401525b50505050565b600060028204905060018216806139eb57607f821691505b602082108114156139ff576139fe613b0e565b5b50919050565b613a0e82613b6c565b810181811067ffffffffffffffff82111715613a2d57613a2c613b3d565b5b80604052505050565b6000613a4182613958565b91507fffffffffffffffffffffffffffffffffffffffffffffffffffffffffffffffff821415613a7457613a73613ab0565b5b600182019050919050565b6000613a8a82613958565b9150613a9583613958565b925082613aa557613aa4613adf565b5b828206905092915050565b7f4e487b7100000000000000000000000000000000000000000000000000000000600052601160045260246000fd5b7f4e487b7100000000000000000000000000000000000000000000000000000000600052601260045260246000fd5b7f4e487b7100000000000000000000000000000000000000000000000000000000600052602260045260246000fd5b7f4e487b7100000000000000000000000000000000000000000000000000000000600052604160045260246000fd5b6000601f19601f8301169050919050565b7f455243373231456e756d657261626c653a206f776e657220696e646578206f7560008201527f74206f6620626f756e6473000000000000000000000000000000000000000000602082015250565b7f4552433732313a207472616e7366657220746f206e6f6e20455243373231526560008201527f63656976657220696d706c656d656e7465720000000000000000000000000000602082015250565b7f4f776e61626c653a206e6577206f776e657220697320746865207a65726f206160008201527f6464726573730000000000000000000000000000000000000000000000000000602082015250565b7f4552433732313a207472616e736665722066726f6d20696e636f72726563742060008201527f6f776e6572000000000000000000000000000000000000000000000000000000602082015250565b7f4552433732313a20746f6b656e20616c7265616479206d696e74656400000000600082015250565b7f4552433732313a207472616e7366657220746f20746865207a65726f2061646460008201527f7265737300000000000000000000000000000000000000000000000000000000602082015250565b7f4552433732313a20617070726f766520746f2063616c6c657200000000000000600082015250565b7f4552433732313a206f70657261746f7220717565727920666f72206e6f6e657860008201527f697374656e7420746f6b656e0000000000000000000000000000000000000000602082015250565b7f4552433732313a20617070726f76652063616c6c6572206973206e6f74206f7760008201527f6e6572206e6f7220617070726f76656420666f7220616c6c0000000000000000602082015250565b7f4552433732313a2062616c616e636520717565727920666f7220746865207a6560008201527f726f206164647265737300000000000000000000000000000000000000000000602082015250565b7f4552433732313a206f776e657220717565727920666f72206e6f6e657869737460008201527f656e7420746f6b656e0000000000000000000000000000000000000000000000602082015250565b7f45524337323155524953746f726167653a2055524920736574206f66206e6f6e60008201527f6578697374656e7420746f6b656e000000000000000000000000000000000000602082015250565b7f496e697469616c697a61626c653a20636f6e747261637420697320616c72656160008201527f647920696e697469616c697a6564000000000000000000000000000000000000602082015250565b7f4552433732313a206d696e7420746f20746865207a65726f2061646472657373600082015250565b7f45524337323155524953746f726167653a2055524920717565727920666f722060008201527f6e6f6e6578697374656e7420746f6b656e000000000000000000000000000000602082015250565b7f4552433732313a20617070726f76656420717565727920666f72206e6f6e657860008201527f697374656e7420746f6b656e0000000000000000000000000000000000000000602082015250565b7f4f776e61626c653a2063616c6c6572206973206e6f7420746865206f776e6572600082015250565b7f4552433732314d657461646174613a2055524920717565727920666f72206e6f60008201527f6e6578697374656e7420746f6b656e0000000000000000000000000000000000602082015250565b7f4552433732313a20617070726f76616c20746f2063757272656e74206f776e6560008201527f7200000000000000000000000000000000000000000000000000000000000000602082015250565b7f4552433732313a207472616e736665722063616c6c6572206973206e6f74206f60008201527f776e6572206e6f7220617070726f766564000000000000000000000000000000602082015250565b7f455243373231456e756d657261626c653a20676c6f62616c20696e646578206f60008201527f7574206f6620626f756e64730000000000000000000000000000000000000000602082015250565b7f496e697469616c697a61626c653a20636f6e7472616374206973206e6f74206960008201527f6e697469616c697a696e67000000000000000000000000000000000000000000602082015250565b6141b8816138ee565b81146141c357600080fd5b50565b6141cf81613900565b81146141da57600080fd5b50565b6141e68161390c565b81146141f157600080fd5b50565b6141fd81613958565b811461420857600080fd5b5056fea2646970667358221220f3acfe5323314e49e207c810550daa6844849351ce9be3d3cc9f13378af8f1b864736f6c63430008020033",
  "linkReferences": {},
  "deployedLinkReferences": {}
}