{
  "_format": "hh-sol-artifact-1",
  "contractName": "MyNFTV2",
  "sourceName": "contracts/MyNFTV2.sol",
  "abi": [
    {
      "anonymous": false,
      "inputs": [
        {
          "indexed": true,
          "internalType": "address",
          "name": "owner",
          "type": "address"
        },
        {
          "indexed": true,
          "internalType": "address",
          "name": "approved",
          "type": "address"
        },
        {
          "indexed": true,
          "internalType": "uint256",
          "name": "tokenId",
          "type": "uint256"
        }
      ],
      "name": "Approval",
      "type": "event"
    },
    {
      "anonymous": false,
      "inputs": [
        {
          "indexed": true,
          "internalType": "address",
          "name": "owner",
          "type": "address"
        },
        {
          "indexed": true,
          "internalType": "address",
          "name": "operator",
          "type": "address"
        },
        {
          "indexed": false,
          "internalType": "bool",
          "name": "approved",
          "type": "bool"
        }
      ],
      "name": "ApprovalForAll",
      "type": "event"
    },
    {
      "anonymous": false,
      "inputs": [
        {
          "indexed": false,
          "internalType": "uint8",
          "name": "version",
          "type": "uint8"
        }
      ],
      "name": "Initialized",
      "type": "event"
    },
    {
      "anonymous": false,
      "inputs": [
        {
          "indexed": true,
          "internalType": "address",
          "name": "previousOwner",
          "type": "address"
        },
        {
          "indexed": true,
          "internalType": "address",
          "name": "newOwner",
          "type": "address"
        }
      ],
      "name": "OwnershipTransferred",
      "type": "event"
    },
    {
      "anonymous": false,
      "inputs": [
        {
          "indexed": true,
          "internalType": "address",
          "name": "from",
          "type": "address"
        },
        {
          "indexed": true,
          "internalType": "address",
          "name": "to",
          "type": "address"
        },
        {
          "indexed": true,
          "internalType": "uint256",
          "name": "tokenId",
          "type": "uint256"
        }
      ],
      "name": "Transfer",
      "type": "event"
    },
    {
      "inputs": [
        {
          "internalType": "address",
          "name": "to",
          "type": "address"
        },
        {
          "internalType": "uint256",
          "name": "tokenId",
          "type": "uint256"
        }
      ],
      "name": "approve",
      "outputs": [],
      "stateMutability": "nonpayable",
      "type": "function"
    },
    {
      "inputs": [
        {
          "internalType": "address",
          "name": "owner",
          "type": "address"
        }
      ],
      "name": "balanceOf",
      "outputs": [
        {
          "internalType": "uint256",
          "name": "",
          "type": "uint256"
        }
      ],
      "stateMutability": "view",
      "type": "function"
    },
    {
      "inputs": [
        {
          "internalType": "uint256",
          "name": "tokenId",
          "type": "uint256"
        }
      ],
      "name": "getApproved",
      "outputs": [
        {
          "internalType": "address",
          "name": "",
          "type": "address"
        }
      ],
      "stateMutability": "view",
      "type": "function"
    },
    {
      "inputs": [],
      "name": "getMyNFTs",
      "outputs": [
        {
          "components": [
            {
              "internalType": "uint32",
              "name": "token",
              "type": "uint32"
            },
            {
              "internalType": "string",
              "name": "uri",
              "type": "string"
            }
          ],
          "internalType": "struct MyNFTV2.NFT[]",
          "name": "",
          "type": "tuple[]"
        }
      ],
      "stateMutability": "view",
      "type": "function"
    },
    {
      "inputs": [],
      "name": "initialize",
      "outputs": [],
      "stateMutability": "nonpayable",
      "type": "function"
    },
    {
      "inputs": [],
      "name": "initializeV2",
      "outputs": [],
      "stateMutability": "nonpayable",
      "type": "function"
    },
    {
      "inputs": [
        {
          "internalType": "address",
          "name": "owner",
          "type": "address"
        },
        {
          "internalType": "address",
          "name": "operator",
          "type": "address"
        }
      ],
      "name": "isApprovedForAll",
      "outputs": [
        {
          "internalType": "bool",
          "name": "",
          "type": "bool"
        }
      ],
      "stateMutability": "view",
      "type": "function"
    },
    {
      "inputs": [
        {
          "internalType": "address",
          "name": "recipient",
          "type": "address"
        },
        {
          "internalType": "string",
          "name": "tokenURI",
          "type": "string"
        }
      ],
      "name": "mintNFT",
      "outputs": [
        {
          "internalType": "uint256",
          "name": "",
          "type": "uint256"
        }
      ],
      "stateMutability": "nonpayable",
      "type": "function"
    },
    {
      "inputs": [],
      "name": "name",
      "outputs": [
        {
          "internalType": "string",
          "name": "",
          "type": "string"
        }
      ],
      "stateMutability": "view",
      "type": "function"
    },
    {
      "inputs": [],
      "name": "owner",
      "outputs": [
        {
          "internalType": "address",
          "name": "",
          "type": "address"
        }
      ],
      "stateMutability": "view",
      "type": "function"
    },
    {
      "inputs": [
        {
          "internalType": "uint256",
          "name": "tokenId",
          "type": "uint256"
        }
      ],
      "name": "ownerOf",
      "outputs": [
        {
          "internalType": "address",
          "name": "",
          "type": "address"
        }
      ],
      "stateMutability": "view",
      "type": "function"
    },
    {
      "inputs": [],
      "name": "renounceOwnership",
      "outputs": [],
      "stateMutability": "nonpayable",
      "type": "function"
    },
    {
      "inputs": [
        {
          "internalType": "address",
          "name": "from",
          "type": "address"
        },
        {
          "internalType": "address",
          "name": "to",
          "type": "address"
        },
        {
          "internalType": "uint256",
          "name": "tokenId",
          "type": "uint256"
        }
      ],
      "name": "safeTransferFrom",
      "outputs": [],
      "stateMutability": "nonpayable",
      "type": "function"
    },
    {
      "inputs": [
        {
          "internalType": "address",
          "name": "from",
          "type": "address"
        },
        {
          "internalType": "address",
          "name": "to",
          "type": "address"
        },
        {
          "internalType": "uint256",
          "name": "tokenId",
          "type": "uint256"
        },
        {
          "internalType": "bytes",
          "name": "_data",
          "type": "bytes"
        }
      ],
      "name": "safeTransferFrom",
      "outputs": [],
      "stateMutability": "nonpayable",
      "type": "function"
    },
    {
      "inputs": [
        {
          "internalType": "address",
          "name": "to",
          "type": "address"
        },
        {
          "internalType": "uint256",
          "name": "tokenId",
          "type": "uint256"
        }
      ],
      "name": "sendMyNFT",
      "outputs": [
        {
          "internalType": "bool",
          "name": "",
          "type": "bool"
        }
      ],
      "stateMutability": "nonpayable",
      "type": "function"
    },
    {
      "inputs": [
        {
          "internalType": "address",
          "name": "operator",
          "type": "address"
        },
        {
          "internalType": "bool",
          "name": "approved",
          "type": "bool"
        }
      ],
      "name": "setApprovalForAll",
      "outputs": [],
      "stateMutability": "nonpayable",
      "type": "function"
    },
    {
      "inputs": [
        {
          "internalType": "bytes4",
          "name": "interfaceId",
          "type": "bytes4"
        }
      ],
      "name": "supportsInterface",
      "outputs": [
        {
          "internalType": "bool",
          "name": "",
          "type": "bool"
        }
      ],
      "stateMutability": "view",
      "type": "function"
    },
    {
      "inputs": [],
      "name": "symbol",
      "outputs": [
        {
          "internalType": "string",
          "name": "",
          "type": "string"
        }
      ],
      "stateMutability": "view",
      "type": "function"
    },
    {
      "inputs": [
        {
          "internalType": "uint256",
          "name": "index",
          "type": "uint256"
        }
      ],
      "name": "tokenByIndex",
      "outputs": [
        {
          "internalType": "uint256",
          "name": "",
          "type": "uint256"
        }
      ],
      "stateMutability": "view",
      "type": "function"
    },
    {
      "inputs": [
        {
          "internalType": "address",
          "name": "owner",
          "type": "address"
        },
        {
          "internalType": "uint256",
          "name": "index",
          "type": "uint256"
        }
      ],
      "name": "tokenOfOwnerByIndex",
      "outputs": [
        {
          "internalType": "uint256",
          "name": "",
          "type": "uint256"
        }
      ],
      "stateMutability": "view",
      "type": "function"
    },
    {
      "inputs": [
        {
          "internalType": "uint256",
          "name": "tokenId",
          "type": "uint256"
        }
      ],
      "name": "tokenURI",
      "outputs": [
        {
          "internalType": "string",
          "name": "",
          "type": "string"
        }
      ],
      "stateMutability": "view",
      "type": "function"
    },
    {
      "inputs": [],
      "name": "totalSupply",
      "outputs": [
        {
          "internalType": "uint256",
          "name": "",
          "type": "uint256"
        }
      ],
      "stateMutability": "view",
      "type": "function"
    },
    {
      "inputs": [
        {
          "internalType": "address",
          "name": "from",
          "type": "address"
        },
        {
          "internalType": "address",
          "name": "to",
          "type": "address"
        },
        {
          "internalType": "uint256",
          "name": "tokenId",
          "type": "uint256"
        }
      ],
      "name": "transferFrom",
      "outputs": [],
      "stateMutability": "nonpayable",
      "type": "function"
    },
    {
      "inputs": [
        {
          "internalType": "address",
          "name": "newOwner",
          "type": "address"
        }
      ],
      "name": "transferOwnership",
      "outputs": [],
      "stateMutability": "nonpayable",
      "type": "function"
    }
  ],
  "bytecode": "0x608060405234801561001057600080fd5b50614199806100206000396000f3fe608060405234801561001057600080fd5b50600436106101585760003560e01c80636352211e116100c3578063a22cb4651161007c578063a22cb465146103b5578063b88d4fde146103d1578063c87b56dd146103ed578063e985e9c51461041d578063eacabe141461044d578063f2fde38b1461047d57610158565b80636352211e1461030557806370a0823114610335578063715018a6146103655780638129fc1c1461036f5780638da5cb5b1461037957806395d89b411461039757610158565b80632f745c59116101155780632f745c591461023157806342842e0e146102615780634f6ccce71461027d57806350b0b2d3146102ad5780635cd8a76b146102dd578063629cb2e4146102e757610158565b806301ffc9a71461015d57806306fdde031461018d578063081812fc146101ab578063095ea7b3146101db57806318160ddd146101f757806323b872dd14610215575b600080fd5b61017760048036038101906101729190612d2d565b610499565b6040516101849190613344565b60405180910390f35b6101956104ab565b6040516101a2919061337a565b60405180910390f35b6101c560048036038101906101c09190612d7f565b61053d565b6040516101d291906132bb565b60405180910390f35b6101f560048036038101906101f09190612cf1565b6105c2565b005b6101ff6106da565b60405161020c919061365c565b60405180910390f35b61022f600480360381019061022a9190612b97565b6106e7565b005b61024b60048036038101906102469190612cf1565b610747565b604051610258919061365c565b60405180910390f35b61027b60048036038101906102769190612b97565b6107ec565b005b61029760048036038101906102929190612d7f565b61080c565b6040516102a4919061365c565b60405180910390f35b6102c760048036038101906102c29190612cf1565b6108a3565b6040516102d49190613344565b60405180910390f35b6102e56108c4565b005b6102ef61098f565b6040516102fc9190613322565b60405180910390f35b61031f600480360381019061031a9190612d7f565b610b01565b60405161032c91906132bb565b60405180910390f35b61034f600480360381019061034a9190612b32565b610bb3565b60405161035c919061365c565b60405180910390f35b61036d610c6b565b005b610377610cf3565b005b610381610dfb565b60405161038e91906132bb565b60405180910390f35b61039f610e25565b6040516103ac919061337a565b60405180910390f35b6103cf60048036038101906103ca9190612c61565b610eb7565b005b6103eb60048036038101906103e69190612be6565b610ecd565b005b61040760048036038101906104029190612d7f565b610f2f565b604051610414919061337a565b60405180910390f35b61043760048036038101906104329190612b5b565b610f41565b6040516104449190613344565b60405180910390f35b61046760048036038101906104629190612c9d565b610fd5565b604051610474919061365c565b60405180910390f35b61049760048036038101906104929190612b32565b611089565b005b60006104a482611181565b9050919050565b6060606580546104ba9061392b565b80601f01602080910402602001604051908101604052809291908181526020018280546104e69061392b565b80156105335780601f1061050857610100808354040283529160200191610533565b820191906000526020600020905b81548152906001019060200180831161051657829003601f168201915b5050505050905090565b600061054882611263565b610587576040517f08c379a000000000000000000000000000000000000000000000000000000000815260040161057e9061357c565b60405180910390fd5b6069600083815260200190815260200160002060009054906101000a900473ffffffffffffffffffffffffffffffffffffffff169050919050565b60006105cd82610b01565b90508073ffffffffffffffffffffffffffffffffffffffff168373ffffffffffffffffffffffffffffffffffffffff16141561063e576040517f08c379a0000000000000000000000000000000000000000000000000000000008152600401610635906135dc565b60405180910390fd5b8073ffffffffffffffffffffffffffffffffffffffff1661065d6112cf565b73ffffffffffffffffffffffffffffffffffffffff16148061068c575061068b816106866112cf565b610f41565b5b6106cb576040517f08c379a00000000000000000000000000000000000000000000000000000000081526004016106c29061349c565b60405180910390fd5b6106d583836112d7565b505050565b600060fe80549050905090565b6106f86106f26112cf565b82611390565b610737576040517f08c379a000000000000000000000000000000000000000000000000000000000815260040161072e906135fc565b60405180910390fd5b61074283838361146e565b505050565b600061075283610bb3565b8210610793576040517f08c379a000000000000000000000000000000000000000000000000000000000815260040161078a9061339c565b60405180910390fd5b60fc60008473ffffffffffffffffffffffffffffffffffffffff1673ffffffffffffffffffffffffffffffffffffffff168152602001908152602001600020600083815260200190815260200160002054905092915050565b61080783838360405180602001604052806000815250610ecd565b505050565b60006108166106da565b8210610857576040517f08c379a000000000000000000000000000000000000000000000000000000000815260040161084e9061361c565b60405180910390fd5b60fe8281548110610891577f4e487b7100000000000000000000000000000000000000000000000000000000600052603260045260246000fd5b90600052602060002001549050919050565b60006108af83836105c2565b6108ba3384846107ec565b6001905092915050565b60006108d060016116d5565b905080156108f4576001600060016101000a81548160ff0219169083151502179055505b61012e60009054906101000a900460ff161561090f57600080fd5b600161012e60006101000a81548160ff0219169083151502179055506109336117c5565b801561098c5760008060016101000a81548160ff0219169083151502179055507f7f26b83ff96e1f2b6a682f133852f6798a09c465da95921460cefb38474024986001604051610983919061335f565b60405180910390a15b50565b6060600033905060006109a182610bb3565b905060008167ffffffffffffffff8111156109e5577f4e487b7100000000000000000000000000000000000000000000000000000000600052604160045260246000fd5b604051908082528060200260200182016040528015610a1e57816020015b610a0b612936565b815260200190600190039081610a035790505b50905060005b82811015610af7576000610a388583610747565b9050610a4381610f2f565b838381518110610a7c577f4e487b7100000000000000000000000000000000000000000000000000000000600052603260045260246000fd5b60200260200101516020018190525080838381518110610ac5577f4e487b7100000000000000000000000000000000000000000000000000000000600052603260045260246000fd5b60200260200101516000019063ffffffff16908163ffffffff1681525050508080610aef9061398e565b915050610a24565b5080935050505090565b6000806067600084815260200190815260200160002060009054906101000a900473ffffffffffffffffffffffffffffffffffffffff169050600073ffffffffffffffffffffffffffffffffffffffff168173ffffffffffffffffffffffffffffffffffffffff161415610baa576040517f08c379a0000000000000000000000000000000000000000000000000000000008152600401610ba1906134dc565b60405180910390fd5b80915050919050565b60008073ffffffffffffffffffffffffffffffffffffffff168273ffffffffffffffffffffffffffffffffffffffff161415610c24576040517f08c379a0000000000000000000000000000000000000000000000000000000008152600401610c1b906134bc565b60405180910390fd5b606860008373ffffffffffffffffffffffffffffffffffffffff1673ffffffffffffffffffffffffffffffffffffffff168152602001908152602001600020549050919050565b610c736112cf565b73ffffffffffffffffffffffffffffffffffffffff16610c91610dfb565b73ffffffffffffffffffffffffffffffffffffffff1614610ce7576040517f08c379a0000000000000000000000000000000000000000000000000000000008152600401610cde9061359c565b60405180910390fd5b610cf16000611816565b565b6000610cff60016116d5565b90508015610d23576001600060016101000a81548160ff0219169083151502179055505b610d976040518060400160405280600581526020017f4d794846540000000000000000000000000000000000000000000000000000008152506040518060400160405280600381526020017f4e465400000000000000000000000000000000000000000000000000000000008152506118dc565b610d9f611939565b8015610df85760008060016101000a81548160ff0219169083151502179055507f7f26b83ff96e1f2b6a682f133852f6798a09c465da95921460cefb38474024986001604051610def919061335f565b60405180910390a15b50565b600060c960009054906101000a900473ffffffffffffffffffffffffffffffffffffffff16905090565b606060668054610e349061392b565b80601f0160208091040260200160405190810160405280929190818152602001828054610e609061392b565b8015610ead5780601f10610e8257610100808354040283529160200191610ead565b820191906000526020600020905b815481529060010190602001808311610e9057829003601f168201915b5050505050905090565b610ec9610ec26112cf565b8383611992565b5050565b610ede610ed86112cf565b83611390565b610f1d576040517f08c379a0000000000000000000000000000000000000000000000000000000008152600401610f14906135fc565b60405180910390fd5b610f2984848484611aff565b50505050565b6060610f3a82611b5b565b9050919050565b6000606a60008473ffffffffffffffffffffffffffffffffffffffff1673ffffffffffffffffffffffffffffffffffffffff16815260200190815260200160002060008373ffffffffffffffffffffffffffffffffffffffff1673ffffffffffffffffffffffffffffffffffffffff16815260200190815260200160002060009054906101000a900460ff16905092915050565b6000610fdf6112cf565b73ffffffffffffffffffffffffffffffffffffffff16610ffd610dfb565b73ffffffffffffffffffffffffffffffffffffffff1614611053576040517f08c379a000000000000000000000000000000000000000000000000000000000815260040161104a9061359c565b60405180910390fd5b61105d60fb611cad565b600061106960fb611cc3565b90506110758482611cd1565b61107f8184611eab565b8091505092915050565b6110916112cf565b73ffffffffffffffffffffffffffffffffffffffff166110af610dfb565b73ffffffffffffffffffffffffffffffffffffffff1614611105576040517f08c379a00000000000000000000000000000000000000000000000000000000081526004016110fc9061359c565b60405180910390fd5b600073ffffffffffffffffffffffffffffffffffffffff168173ffffffffffffffffffffffffffffffffffffffff161415611175576040517f08c379a000000000000000000000000000000000000000000000000000000000815260040161116c906133dc565b60405180910390fd5b61117e81611816565b50565b60007f80ac58cd000000000000000000000000000000000000000000000000000000007bffffffffffffffffffffffffffffffffffffffffffffffffffffffff1916827bffffffffffffffffffffffffffffffffffffffffffffffffffffffff1916148061124c57507f5b5e139f000000000000000000000000000000000000000000000000000000007bffffffffffffffffffffffffffffffffffffffffffffffffffffffff1916827bffffffffffffffffffffffffffffffffffffffffffffffffffffffff1916145b8061125c575061125b82611f1f565b5b9050919050565b60008073ffffffffffffffffffffffffffffffffffffffff166067600084815260200190815260200160002060009054906101000a900473ffffffffffffffffffffffffffffffffffffffff1673ffffffffffffffffffffffffffffffffffffffff1614159050919050565b600033905090565b816069600083815260200190815260200160002060006101000a81548173ffffffffffffffffffffffffffffffffffffffff021916908373ffffffffffffffffffffffffffffffffffffffff160217905550808273ffffffffffffffffffffffffffffffffffffffff1661134a83610b01565b73ffffffffffffffffffffffffffffffffffffffff167f8c5be1e5ebec7d5bd14f71427d1e84f3dd0314c0f7b2291e5b200ac8c7c3b92560405160405180910390a45050565b600061139b82611263565b6113da576040517f08c379a00000000000000000000000000000000000000000000000000000000081526004016113d19061347c565b60405180910390fd5b60006113e583610b01565b90508073ffffffffffffffffffffffffffffffffffffffff168473ffffffffffffffffffffffffffffffffffffffff16148061142757506114268185610f41565b5b8061146557508373ffffffffffffffffffffffffffffffffffffffff1661144d8461053d565b73ffffffffffffffffffffffffffffffffffffffff16145b91505092915050565b8273ffffffffffffffffffffffffffffffffffffffff1661148e82610b01565b73ffffffffffffffffffffffffffffffffffffffff16146114e4576040517f08c379a00000000000000000000000000000000000000000000000000000000081526004016114db906133fc565b60405180910390fd5b600073ffffffffffffffffffffffffffffffffffffffff168273ffffffffffffffffffffffffffffffffffffffff161415611554576040517f08c379a000000000000000000000000000000000000000000000000000000000815260040161154b9061343c565b60405180910390fd5b61155f838383611f89565b61156a6000826112d7565b6001606860008573ffffffffffffffffffffffffffffffffffffffff1673ffffffffffffffffffffffffffffffffffffffff16815260200190815260200160002060008282546115ba9190613812565b925050819055506001606860008473ffffffffffffffffffffffffffffffffffffffff1673ffffffffffffffffffffffffffffffffffffffff1681526020019081526020016000206000828254611611919061378b565b92505081905550816067600083815260200190815260200160002060006101000a81548173ffffffffffffffffffffffffffffffffffffffff021916908373ffffffffffffffffffffffffffffffffffffffff160217905550808273ffffffffffffffffffffffffffffffffffffffff168473ffffffffffffffffffffffffffffffffffffffff167fddf252ad1be2c89b69c2b068fc378daa952ba7f163c4a11628f55a4df523b3ef60405160405180910390a46116d0838383611f99565b505050565b60008060019054906101000a900460ff161561174c5760018260ff16148015611704575061170230611f9e565b155b611743576040517f08c379a000000000000000000000000000000000000000000000000000000000815260040161173a9061351c565b60405180910390fd5b600090506117c0565b8160ff1660008054906101000a900460ff1660ff16106117a1576040517f08c379a00000000000000000000000000000000000000000000000000000000081526004016117989061351c565b60405180910390fd5b816000806101000a81548160ff021916908360ff160217905550600190505b919050565b600060019054906101000a900460ff16611814576040517f08c379a000000000000000000000000000000000000000000000000000000000815260040161180b9061363c565b60405180910390fd5b565b600060c960009054906101000a900473ffffffffffffffffffffffffffffffffffffffff1690508160c960006101000a81548173ffffffffffffffffffffffffffffffffffffffff021916908373ffffffffffffffffffffffffffffffffffffffff1602179055508173ffffffffffffffffffffffffffffffffffffffff168173ffffffffffffffffffffffffffffffffffffffff167f8be0079c531659141344cd1fd0a4f28419497f9722a3daafe3b4186f6b6457e060405160405180910390a35050565b600060019054906101000a900460ff1661192b576040517f08c379a00000000000000000000000000000000000000000000000000000000081526004016119229061363c565b60405180910390fd5b6119358282611fc1565b5050565b600060019054906101000a900460ff16611988576040517f08c379a000000000000000000000000000000000000000000000000000000000815260040161197f9061363c565b60405180910390fd5b611990612042565b565b8173ffffffffffffffffffffffffffffffffffffffff168373ffffffffffffffffffffffffffffffffffffffff161415611a01576040517f08c379a00000000000000000000000000000000000000000000000000000000081526004016119f89061345c565b60405180910390fd5b80606a60008573ffffffffffffffffffffffffffffffffffffffff1673ffffffffffffffffffffffffffffffffffffffff16815260200190815260200160002060008473ffffffffffffffffffffffffffffffffffffffff1673ffffffffffffffffffffffffffffffffffffffff16815260200190815260200160002060006101000a81548160ff0219169083151502179055508173ffffffffffffffffffffffffffffffffffffffff168373ffffffffffffffffffffffffffffffffffffffff167f17307eab39ab6107e8899845ad3d59bd9653f200f220920489ca2b5937696c3183604051611af29190613344565b60405180910390a3505050565b611b0a84848461146e565b611b16848484846120a3565b611b55576040517f08c379a0000000000000000000000000000000000000000000000000000000008152600401611b4c906133bc565b60405180910390fd5b50505050565b6060611b6682611263565b611ba5576040517f08c379a0000000000000000000000000000000000000000000000000000000008152600401611b9c9061355c565b60405180910390fd5b6000609760008481526020019081526020016000208054611bc59061392b565b80601f0160208091040260200160405190810160405280929190818152602001828054611bf19061392b565b8015611c3e5780601f10611c1357610100808354040283529160200191611c3e565b820191906000526020600020905b815481529060010190602001808311611c2157829003601f168201915b505050505090506000611c4f61223a565b9050600081511415611c65578192505050611ca8565b600082511115611c9a578082604051602001611c82929190613297565b60405160208183030381529060405292505050611ca8565b611ca384612251565b925050505b919050565b6001816000016000828254019250508190555050565b600081600001549050919050565b600073ffffffffffffffffffffffffffffffffffffffff168273ffffffffffffffffffffffffffffffffffffffff161415611d41576040517f08c379a0000000000000000000000000000000000000000000000000000000008152600401611d389061353c565b60405180910390fd5b611d4a81611263565b15611d8a576040517f08c379a0000000000000000000000000000000000000000000000000000000008152600401611d819061341c565b60405180910390fd5b611d9660008383611f89565b6001606860008473ffffffffffffffffffffffffffffffffffffffff1673ffffffffffffffffffffffffffffffffffffffff1681526020019081526020016000206000828254611de6919061378b565b92505081905550816067600083815260200190815260200160002060006101000a81548173ffffffffffffffffffffffffffffffffffffffff021916908373ffffffffffffffffffffffffffffffffffffffff160217905550808273ffffffffffffffffffffffffffffffffffffffff16600073ffffffffffffffffffffffffffffffffffffffff167fddf252ad1be2c89b69c2b068fc378daa952ba7f163c4a11628f55a4df523b3ef60405160405180910390a4611ea760008383611f99565b5050565b611eb482611263565b611ef3576040517f08c379a0000000000000000000000000000000000000000000000000000000008152600401611eea906134fc565b60405180910390fd5b80609760008481526020019081526020016000209080519060200190611f1a929190612956565b505050565b60007f01ffc9a7000000000000000000000000000000000000000000000000000000007bffffffffffffffffffffffffffffffffffffffffffffffffffffffff1916827bffffffffffffffffffffffffffffffffffffffffffffffffffffffff1916149050919050565b611f948383836122f8565b505050565b505050565b6000808273ffffffffffffffffffffffffffffffffffffffff163b119050919050565b600060019054906101000a900460ff16612010576040517f08c379a00000000000000000000000000000000000000000000000000000000081526004016120079061363c565b60405180910390fd5b8160659080519060200190612026929190612956565b50806066908051906020019061203d929190612956565b505050565b600060019054906101000a900460ff16612091576040517f08c379a00000000000000000000000000000000000000000000000000000000081526004016120889061363c565b60405180910390fd5b6120a161209c6112cf565b611816565b565b60006120c48473ffffffffffffffffffffffffffffffffffffffff16611f9e565b1561222d578373ffffffffffffffffffffffffffffffffffffffff1663150b7a026120ed6112cf565b8786866040518563ffffffff1660e01b815260040161210f94939291906132d6565b602060405180830381600087803b15801561212957600080fd5b505af192505050801561215a57506040513d601f19601f820116820180604052508101906121579190612d56565b60015b6121dd573d806000811461218a576040519150601f19603f3d011682016040523d82523d6000602084013e61218f565b606091505b506000815114156121d5576040517f08c379a00000000000000000000000000000000000000000000000000000000081526004016121cc906133bc565b60405180910390fd5b805181602001fd5b63150b7a0260e01b7bffffffffffffffffffffffffffffffffffffffffffffffffffffffff1916817bffffffffffffffffffffffffffffffffffffffffffffffffffffffff191614915050612232565b600190505b949350505050565b606060405180602001604052806000815250905090565b606061225c82611263565b61229b576040517f08c379a0000000000000000000000000000000000000000000000000000000008152600401612292906135bc565b60405180910390fd5b60006122a561223a565b905060008151116122c557604051806020016040528060008152506122f0565b806122cf8461240c565b6040516020016122e0929190613297565b6040516020818303038152906040525b915050919050565b6123038383836125b9565b600073ffffffffffffffffffffffffffffffffffffffff168373ffffffffffffffffffffffffffffffffffffffff16141561234657612341816125be565b612385565b8173ffffffffffffffffffffffffffffffffffffffff168373ffffffffffffffffffffffffffffffffffffffff1614612384576123838382612607565b5b5b600073ffffffffffffffffffffffffffffffffffffffff168273ffffffffffffffffffffffffffffffffffffffff1614156123c8576123c381612774565b612407565b8273ffffffffffffffffffffffffffffffffffffffff168273ffffffffffffffffffffffffffffffffffffffff16146124065761240582826128b7565b5b5b505050565b60606000821415612454576040518060400160405280600181526020017f300000000000000000000000000000000000000000000000000000000000000081525090506125b4565b600082905060005b6000821461248657808061246f9061398e565b915050600a8261247f91906137e1565b915061245c565b60008167ffffffffffffffff8111156124c8577f4e487b7100000000000000000000000000000000000000000000000000000000600052604160045260246000fd5b6040519080825280601f01601f1916602001820160405280156124fa5781602001600182028036833780820191505090505b5090505b600085146125ad576001826125139190613812565b9150600a8561252291906139d7565b603061252e919061378b565b60f81b81838151811061256a577f4e487b7100000000000000000000000000000000000000000000000000000000600052603260045260246000fd5b60200101907effffffffffffffffffffffffffffffffffffffffffffffffffffffffffffff1916908160001a905350600a856125a691906137e1565b94506124fe565b8093505050505b919050565b505050565b60fe8054905060ff60008381526020019081526020016000208190555060fe81908060018154018082558091505060019003906000526020600020016000909190919091505550565b6000600161261484610bb3565b61261e9190613812565b9050600060fd600084815260200190815260200160002054905081811461270357600060fc60008673ffffffffffffffffffffffffffffffffffffffff1673ffffffffffffffffffffffffffffffffffffffff16815260200190815260200160002060008481526020019081526020016000205490508060fc60008773ffffffffffffffffffffffffffffffffffffffff1673ffffffffffffffffffffffffffffffffffffffff1681526020019081526020016000206000848152602001908152602001600020819055508160fd600083815260200190815260200160002081905550505b60fd60008481526020019081526020016000206000905560fc60008573ffffffffffffffffffffffffffffffffffffffff1673ffffffffffffffffffffffffffffffffffffffff16815260200190815260200160002060008381526020019081526020016000206000905550505050565b6000600160fe805490506127889190613812565b9050600060ff6000848152602001908152602001600020549050600060fe83815481106127de577f4e487b7100000000000000000000000000000000000000000000000000000000600052603260045260246000fd5b906000526020600020015490508060fe8381548110612826577f4e487b7100000000000000000000000000000000000000000000000000000000600052603260045260246000fd5b90600052602060002001819055508160ff60008381526020019081526020016000208190555060ff60008581526020019081526020016000206000905560fe80548061289b577f4e487b7100000000000000000000000000000000000000000000000000000000600052603160045260246000fd5b6001900381819060005260206000200160009055905550505050565b60006128c283610bb3565b90508160fc60008573ffffffffffffffffffffffffffffffffffffffff1673ffffffffffffffffffffffffffffffffffffffff1681526020019081526020016000206000838152602001908152602001600020819055508060fd600084815260200190815260200160002081905550505050565b6040518060400160405280600063ffffffff168152602001606081525090565b8280546129629061392b565b90600052602060002090601f01602090048101928261298457600085556129cb565b82601f1061299d57805160ff19168380011785556129cb565b828001600101855582156129cb579182015b828111156129ca5782518255916020019190600101906129af565b5b5090506129d891906129dc565b5090565b5b808211156129f55760008160009055506001016129dd565b5090565b6000612a0c612a078461369c565b613677565b905082815260208101848484011115612a2457600080fd5b612a2f8482856138e9565b509392505050565b6000612a4a612a45846136cd565b613677565b905082815260208101848484011115612a6257600080fd5b612a6d8482856138e9565b509392505050565b600081359050612a8481614107565b92915050565b600081359050612a998161411e565b92915050565b600081359050612aae81614135565b92915050565b600081519050612ac381614135565b92915050565b600082601f830112612ada57600080fd5b8135612aea8482602086016129f9565b91505092915050565b600082601f830112612b0457600080fd5b8135612b14848260208601612a37565b91505092915050565b600081359050612b2c8161414c565b92915050565b600060208284031215612b4457600080fd5b6000612b5284828501612a75565b91505092915050565b60008060408385031215612b6e57600080fd5b6000612b7c85828601612a75565b9250506020612b8d85828601612a75565b9150509250929050565b600080600060608486031215612bac57600080fd5b6000612bba86828701612a75565b9350506020612bcb86828701612a75565b9250506040612bdc86828701612b1d565b9150509250925092565b60008060008060808587031215612bfc57600080fd5b6000612c0a87828801612a75565b9450506020612c1b87828801612a75565b9350506040612c2c87828801612b1d565b925050606085013567ffffffffffffffff811115612c4957600080fd5b612c5587828801612ac9565b91505092959194509250565b60008060408385031215612c7457600080fd5b6000612c8285828601612a75565b9250506020612c9385828601612a8a565b9150509250929050565b60008060408385031215612cb057600080fd5b6000612cbe85828601612a75565b925050602083013567ffffffffffffffff811115612cdb57600080fd5b612ce785828601612af3565b9150509250929050565b60008060408385031215612d0457600080fd5b6000612d1285828601612a75565b9250506020612d2385828601612b1d565b9150509250929050565b600060208284031215612d3f57600080fd5b6000612d4d84828501612a9f565b91505092915050565b600060208284031215612d6857600080fd5b6000612d7684828501612ab4565b91505092915050565b600060208284031215612d9157600080fd5b6000612d9f84828501612b1d565b91505092915050565b6000612db4838361323c565b905092915050565b612dc581613846565b82525050565b6000612dd68261370e565b612de0818561373c565b935083602082028501612df2856136fe565b8060005b85811015612e2e5784840389528151612e0f8582612da8565b9450612e1a8361372f565b925060208a01995050600181019050612df6565b50829750879550505050505092915050565b612e4981613858565b82525050565b6000612e5a82613719565b612e64818561374d565b9350612e748185602086016138f8565b612e7d81613ac4565b840191505092915050565b612e91816138d7565b82525050565b6000612ea282613724565b612eac818561375e565b9350612ebc8185602086016138f8565b612ec581613ac4565b840191505092915050565b6000612edb82613724565b612ee5818561376f565b9350612ef58185602086016138f8565b612efe81613ac4565b840191505092915050565b6000612f1482613724565b612f1e8185613780565b9350612f2e8185602086016138f8565b80840191505092915050565b6000612f47602b8361376f565b9150612f5282613ad5565b604082019050919050565b6000612f6a60328361376f565b9150612f7582613b24565b604082019050919050565b6000612f8d60268361376f565b9150612f9882613b73565b604082019050919050565b6000612fb060258361376f565b9150612fbb82613bc2565b604082019050919050565b6000612fd3601c8361376f565b9150612fde82613c11565b602082019050919050565b6000612ff660248361376f565b915061300182613c3a565b604082019050919050565b600061301960198361376f565b915061302482613c89565b602082019050919050565b600061303c602c8361376f565b915061304782613cb2565b604082019050919050565b600061305f60388361376f565b915061306a82613d01565b604082019050919050565b6000613082602a8361376f565b915061308d82613d50565b604082019050919050565b60006130a560298361376f565b91506130b082613d9f565b604082019050919050565b60006130c8602e8361376f565b91506130d382613dee565b604082019050919050565b60006130eb602e8361376f565b91506130f682613e3d565b604082019050919050565b600061310e60208361376f565b915061311982613e8c565b602082019050919050565b600061313160318361376f565b915061313c82613eb5565b604082019050919050565b6000613154602c8361376f565b915061315f82613f04565b604082019050919050565b600061317760208361376f565b915061318282613f53565b602082019050919050565b600061319a602f8361376f565b91506131a582613f7c565b604082019050919050565b60006131bd60218361376f565b91506131c882613fcb565b604082019050919050565b60006131e060318361376f565b91506131eb8261401a565b604082019050919050565b6000613203602c8361376f565b915061320e82614069565b604082019050919050565b6000613226602b8361376f565b9150613231826140b8565b604082019050919050565b60006040830160008301516132546000860182613288565b506020830151848203602086015261326c8282612e97565b9150508091505092915050565b613282816138b0565b82525050565b613291816138ba565b82525050565b60006132a38285612f09565b91506132af8284612f09565b91508190509392505050565b60006020820190506132d06000830184612dbc565b92915050565b60006080820190506132eb6000830187612dbc565b6132f86020830186612dbc565b6133056040830185613279565b81810360608301526133178184612e4f565b905095945050505050565b6000602082019050818103600083015261333c8184612dcb565b905092915050565b60006020820190506133596000830184612e40565b92915050565b60006020820190506133746000830184612e88565b92915050565b600060208201905081810360008301526133948184612ed0565b905092915050565b600060208201905081810360008301526133b581612f3a565b9050919050565b600060208201905081810360008301526133d581612f5d565b9050919050565b600060208201905081810360008301526133f581612f80565b9050919050565b6000602082019050818103600083015261341581612fa3565b9050919050565b6000602082019050818103600083015261343581612fc6565b9050919050565b6000602082019050818103600083015261345581612fe9565b9050919050565b600060208201905081810360008301526134758161300c565b9050919050565b600060208201905081810360008301526134958161302f565b9050919050565b600060208201905081810360008301526134b581613052565b9050919050565b600060208201905081810360008301526134d581613075565b9050919050565b600060208201905081810360008301526134f581613098565b9050919050565b60006020820190508181036000830152613515816130bb565b9050919050565b60006020820190508181036000830152613535816130de565b9050919050565b6000602082019050818103600083015261355581613101565b9050919050565b6000602082019050818103600083015261357581613124565b9050919050565b6000602082019050818103600083015261359581613147565b9050919050565b600060208201905081810360008301526135b58161316a565b9050919050565b600060208201905081810360008301526135d58161318d565b9050919050565b600060208201905081810360008301526135f5816131b0565b9050919050565b60006020820190508181036000830152613615816131d3565b9050919050565b60006020820190508181036000830152613635816131f6565b9050919050565b6000602082019050818103600083015261365581613219565b9050919050565b60006020820190506136716000830184613279565b92915050565b6000613681613692565b905061368d828261395d565b919050565b6000604051905090565b600067ffffffffffffffff8211156136b7576136b6613a95565b5b6136c082613ac4565b9050602081019050919050565b600067ffffffffffffffff8211156136e8576136e7613a95565b5b6136f182613ac4565b9050602081019050919050565b6000819050602082019050919050565b600081519050919050565b600081519050919050565b600081519050919050565b6000602082019050919050565b600082825260208201905092915050565b600082825260208201905092915050565b600082825260208201905092915050565b600082825260208201905092915050565b600081905092915050565b6000613796826138b0565b91506137a1836138b0565b9250827fffffffffffffffffffffffffffffffffffffffffffffffffffffffffffffffff038211156137d6576137d5613a08565b5b828201905092915050565b60006137ec826138b0565b91506137f7836138b0565b92508261380757613806613a37565b5b828204905092915050565b600061381d826138b0565b9150613828836138b0565b92508282101561383b5761383a613a08565b5b828203905092915050565b600061385182613890565b9050919050565b60008115159050919050565b60007fffffffff0000000000000000000000000000000000000000000000000000000082169050919050565b600073ffffffffffffffffffffffffffffffffffffffff82169050919050565b6000819050919050565b600063ffffffff82169050919050565b600060ff82169050919050565b60006138e2826138ca565b9050919050565b82818337600083830152505050565b60005b838110156139165780820151818401526020810190506138fb565b83811115613925576000848401525b50505050565b6000600282049050600182168061394357607f821691505b6020821081141561395757613956613a66565b5b50919050565b61396682613ac4565b810181811067ffffffffffffffff8211171561398557613984613a95565b5b80604052505050565b6000613999826138b0565b91507fffffffffffffffffffffffffffffffffffffffffffffffffffffffffffffffff8214156139cc576139cb613a08565b5b600182019050919050565b60006139e2826138b0565b91506139ed836138b0565b9250826139fd576139fc613a37565b5b828206905092915050565b7f4e487b7100000000000000000000000000000000000000000000000000000000600052601160045260246000fd5b7f4e487b7100000000000000000000000000000000000000000000000000000000600052601260045260246000fd5b7f4e487b7100000000000000000000000000000000000000000000000000000000600052602260045260246000fd5b7f4e487b7100000000000000000000000000000000000000000000000000000000600052604160045260246000fd5b6000601f19601f8301169050919050565b7f455243373231456e756d657261626c653a206f776e657220696e646578206f7560008201527f74206f6620626f756e6473000000000000000000000000000000000000000000602082015250565b7f4552433732313a207472616e7366657220746f206e6f6e20455243373231526560008201527f63656976657220696d706c656d656e7465720000000000000000000000000000602082015250565b7f4f776e61626c653a206e6577206f776e657220697320746865207a65726f206160008201527f6464726573730000000000000000000000000000000000000000000000000000602082015250565b7f4552433732313a207472616e736665722066726f6d20696e636f72726563742060008201527f6f776e6572000000000000000000000000000000000000000000000000000000602082015250565b7f4552433732313a20746f6b656e20616c7265616479206d696e74656400000000600082015250565b7f4552433732313a207472616e7366657220746f20746865207a65726f2061646460008201527f7265737300000000000000000000000000000000000000000000000000000000602082015250565b7f4552433732313a20617070726f766520746f2063616c6c657200000000000000600082015250565b7f4552433732313a206f70657261746f7220717565727920666f72206e6f6e657860008201527f697374656e7420746f6b656e0000000000000000000000000000000000000000602082015250565b7f4552433732313a20617070726f76652063616c6c6572206973206e6f74206f7760008201527f6e6572206e6f7220617070726f76656420666f7220616c6c0000000000000000602082015250565b7f4552433732313a2062616c616e636520717565727920666f7220746865207a6560008201527f726f206164647265737300000000000000000000000000000000000000000000602082015250565b7f4552433732313a206f776e657220717565727920666f72206e6f6e657869737460008201527f656e7420746f6b656e0000000000000000000000000000000000000000000000602082015250565b7f45524337323155524953746f726167653a2055524920736574206f66206e6f6e60008201527f6578697374656e7420746f6b656e000000000000000000000000000000000000602082015250565b7f496e697469616c697a61626c653a20636f6e747261637420697320616c72656160008201527f647920696e697469616c697a6564000000000000000000000000000000000000602082015250565b7f4552433732313a206d696e7420746f20746865207a65726f2061646472657373600082015250565b7f45524337323155524953746f726167653a2055524920717565727920666f722060008201527f6e6f6e6578697374656e7420746f6b656e000000000000000000000000000000602082015250565b7f4552433732313a20617070726f76656420717565727920666f72206e6f6e657860008201527f697374656e7420746f6b656e0000000000000000000000000000000000000000602082015250565b7f4f776e61626c653a2063616c6c6572206973206e6f7420746865206f776e6572600082015250565b7f4552433732314d657461646174613a2055524920717565727920666f72206e6f60008201527f6e6578697374656e7420746f6b656e0000000000000000000000000000000000602082015250565b7f4552433732313a20617070726f76616c20746f2063757272656e74206f776e6560008201527f7200000000000000000000000000000000000000000000000000000000000000602082015250565b7f4552433732313a207472616e736665722063616c6c6572206973206e6f74206f60008201527f776e6572206e6f7220617070726f766564000000000000000000000000000000602082015250565b7f455243373231456e756d657261626c653a20676c6f62616c20696e646578206f60008201527f7574206f6620626f756e64730000000000000000000000000000000000000000602082015250565b7f496e697469616c697a61626c653a20636f6e7472616374206973206e6f74206960008201527f6e697469616c697a696e67000000000000000000000000000000000000000000602082015250565b61411081613846565b811461411b57600080fd5b50565b61412781613858565b811461413257600080fd5b50565b61413e81613864565b811461414957600080fd5b50565b614155816138b0565b811461416057600080fd5b5056fea264697066735822122042b8f0d6dcbbe21cbaf05cb44076825a4d36c4f420320c671f8af0bcc467e98c64736f6c63430008020033",
  "linkReferences": {},
  "deployedLinkReferences": {}
}